:020000040800F2
:10000000200D002001010008511F0008531B0008AB
:10001000691D000891010008C527000800000000C4
:10002000000000000000000000000000792000082F
:10003000DD020008000000004F2000087B200008BF
:100040001B0100081B0100081B0100081B01000820
:100050001B0100081B0100081B0100081B01000810
:100060001B0100081B0100081B0100081B01000800
:100070001B0100081B0100081B0100089102000879
:10008000A10200081B0100081B0100081B01000859
:100090001B0100081B0100081B0100081B010008D0
:1000A0001B0100081B0100081B0100081B010008C0
:1000B0001B0100081B0100085D2100081B0100084E
:1000C0001B0100081B0100081B0100081B010008A0
:1000D0001B0100081B0100081B0100081B01000890
:1000E0001B0100081B0100081B010008DFF80CD0F1
:1000F00000F03CF80048004721280008200D0020AF
:100100000648804706480047FEE7FEE7FEE7FEE7B1
:10011000FEE7FEE7FEE7FEE7FEE7FEE70521000853
:10012000ED00000840EA01039B0703D009E008C97D
:10013000121F08C0042AFAD203E011F8013B00F8AC
:10014000013B521EF9D27047D2B201E000F8012BF8
:10015000491EFBD270470022F6E710B513460A4647
:1001600004461946FFF7F0FF204610BD064C074D28
:1001700006E0E06840F0010394E807009847103477
:10018000AC42F6D3FFF7B6FF7C2900089C29000893
:1001900000BFFEE72DE9F041244800684068C0F147
:1001A000800084B222480068A0421AD92048006822
:1001B000C0F180062746F519802D03D91C4804603C
:1001C000BDE8F0811A4800681A4A811832461A4878
:1001D000FFF7A8FF184988193A461649FFF7A2FF0A
:1001E00011E013480068251A802D02D910480460D8
:1001F000E6E70F480068221A0D4800680D4BC11849
:100200000D48FFF78FFF0C49094801610B498161D7
:1002100024300749C861243845610C3002F042FAA5
:1002200008B10348046000BFCAE70000340600209C
:10023000BC06002034000020B4000020340100205F
:1002400070B58AB004460D461646002003908DF81E
:100250001040059506960C48079003A808900020CA
:10026000ADF82400DDE90801CDE9000104A80FC8BC
:1002700001F06FFE039882B264230448079901F0ED
:10028000FDFB0AB070BD0000B4010020B4050020E1
:1002900010B5024800F048F810BD000034060020F8
:1002A00010B5024800F040F810BD000078060020AC
:1002B00030B590F840500124AC40C56B6C600468C8
:1002C00063604468102C04D10468A2600468E16093
:1002D00003E00468A1600468E26030BD704770B557
:1002E000044600F009F8054600BF00F005F8401B81
:1002F000A042FAD370BD70472DE9F0414FF47A75F2
:100300004FF0E02044698069271A07FB05F0B0FB35
:10031000F4F800F00BFB00EB4001C1EBC01008EB60
:10032000C0063046BDE8F08170B50446E06B056854
:100330002068066894F8401004208840284000286F
:1003400046D006F00400002842D02068006800F083
:10035000200028B92068006820F0040021680860A7
:1003600057492068884201D1042027E054491431BC
:100370002068884201D1402020E05149283120687E
:10038000884201D1001519E04D493C31206888426E
:1003900002D14FF4804011E0494950312068884231
:1003A00002D14FF4802009E0454964312068884239
:1003B00002D14FF4800001E04FF0806040490839DD
:1003C0004860E06A00287AD02046E16A884776E0F3
:1003D00094F84010022088402840A0B306F00200A4
:1003E00088B32068006800F0200040B920680068E9
:1003F00020F00A0021680860012084F821003049BB
:100400002068884201D1022028E02D49143120685B
:10041000884201D1202021E02949283120688842E2
:1004200001D140151AE026493C312068884202D1AA
:100430004FF4005012E0224950312068884203D125
:100440004FF400300AE017E01D496431206888420B
:1004500002D14FF4001001E04FF000701849083944
:10046000486000BF002084F8200000BFA06A30B3BD
:100470002046A16A884722E094F84010082088406E
:100480002840E0B106F00800C8B12068006820F0FC
:100490000E002168086094F8401001208840E16B4C
:1004A00048600120A06384F8210000BF002084F888
:1004B000200000BF206B10B12046216B884770BD23
:1004C000080002400146002209B901207047164B7E
:1004D0000868C01A1423B0FBF3F0800008641248C7
:1004E0000838C863022081F821000868026843F6D2
:1004F000F0708243D1E901031843CB6818430B69BC
:1005000018434B6918438B691843CB69184302435E
:100510000868026000208863012081F82100002023
:1005200081F8200000BFD1E7080002402DE9F0412A
:1005300004460D4616461F464FF0000800BF94F8CB
:100540002000012802D10220BDE8F081012084F8BA
:10055000200000BF94F8210001282CD1022084F84B
:1005600021000020A0632068006820F001002168BD
:1005700008603B46324629462046FFF799FEE06A6E
:1005800030B12068006840F00E00216808600BE080
:100590002068006820F00400216808602068006876
:1005A00040F00A00216808602068006840F00100FF
:1005B0002168086006E000BF002084F8200000BF2A
:1005C0004FF002084046BFE770B5044600F0AEF9B0
:1005D00006462546681C10B104480078054400BF53
:1005E00000F0A4F9801BA842FAD370BD2C000020B3
:1005F0002DE9F8470346002294466EE14FF00108CA
:1006000008FA02F4D1F8008008EA0400A0427DD183
:10061000DFF8DCA2D1F80480A8EB0A09D0453AD073
:1006200014DCB8F1030F50D009DCB8F1000F31D061
:10063000B8F1010F1CD0B8F1020F49D120E0B8F198
:10064000110F18D0B8F1120F42D11EE0B9F5881F72
:1006500025D006DCB9F5803F20D0B9F5801F37D111
:100660001AE0B9F5001F18D0B9F5041F30D117E012
:10067000D1F80CC02DE0D1F80C8008F1040C28E072
:10068000D1F80C8008F1080C23E0D1F80C8008F1B7
:100690000C0C1EE000BF00BF00BF00BF00BF00BFCA
:1006A000D1F80880B8F1000F02D14FF0040C0BE034
:1006B000D1F80880B8F1010F03D14FF0080C1C618C
:1006C00002E04FF0080C5C6103E04FF0000C00E02A
:1006D00000BF00BFFF2801D8984601E003F10408DD
:1006E0004646FF2802D84FEA820803E0A2F1080834
:1006F0004FEA88084746D6F800804FF00F0909FAFC
:1007000007F928EA09080CFA07F900E088E048EA46
:100710000908C6F80080D1F8048008F08058B8F1C4
:10072000805F7DD100BFDFF8CC81D8F8188048F019
:100730000108DFF8C091C9F81880C846D8F81880B9
:1007400008F00108CDF8008000BF00BF4FEAB938BB
:100750004FEA920958F829504FEA82784FEA1879FF
:100760004FF00F0808FA09F825EA0805DFF8888134
:10077000434502D14FF0000816E0DFF88081434581
:1007800002D14FF001080FE0DFF87481434502D138
:100790004FF0020808E0DFF86C81434502D14FF0CA
:1007A000030801E04FF004084FEA82794FEA197913
:1007B00008FA09F848EA0505DFF84C814FEA920982
:1007C00048F82950D1F8048008F48038B8F5803F03
:1007D0000AD1DFF83881D8F8008048EA0008DFF84D
:1007E0002C91C9F8008009E0DFF82081D8F800805A
:1007F00028EA0008DFF81491C9F80080D1F80480D5
:1008000008F40038B8F5003F10D1DFF8008108F196
:100810000408D8F8008048EA0008DFF8F09000E00B
:100820005AE009F10409C9F800800DE0DFF8DC8026
:1008300008F10408D8F8008028EA0008DFF8CC9016
:1008400009F10409C9F80080D1F8048008F480187F
:10085000B8F5801F0ED1DFF8B48008F10808D8F889
:10086000008048EA0008DFF8A49009F10809C9F8F7
:1008700000800DE0DFF8948008F10808D8F80080C7
:1008800028EA0008DFF8849009F10809C9F8008017
:10089000D1F8048008F40018B8F5001F0ED1DFF875
:1008A0006C8008F10C08D8F8008048EA0008DFF8EE
:1008B0005C9009F10C09C9F800800DE0DFF84C806C
:1008C00008F10C08D8F8008028EA0008DFF83C900E
:1008D00009F10C09C9F80080521CD1F8008028FAEF
:1008E00002F8B8F1000F7FF489AEBDE8F887000088
:1008F000000011100010024000080140000C0140EF
:1009000000100140001401400800014000040140B3
:10091000024693680B400BB1012000E000207047B5
:100920000AB1016101E00B040361704701480068EE
:10093000704700002400002003480068034909783C
:100940000844014908607047240000202C00002062
:1009500010B50848006840F0100006490860032000
:1009600000F0A8F8002000F007F800F02BF80020B5
:1009700010BD00000020024070B504460E4800780B
:100980004FF47A71B1FBF0F00C490968B1FBF0F556
:10099000284600F0A3FC08B1012070BD102C07D23E
:1009A00000222146501E00F047F80548046001E08F
:1009B0000120F2E70020F0E72C00002030000020AA
:1009C0002800002008B500BF1148806940F00100F0
:1009D0000F4988610846806900F00100009000BF5F
:1009E00000BF00BF0846C06940F08050C86108469B
:1009F000C06900F08050009000BF00BF00BF0549F3
:100A0000486820F0E06040F00070486000BF08BD1A
:100A1000001002400000014001460846002809DBA2
:100A200000F01F0301229A4043099B0003F1E023D9
:100A3000C3F8002100BF70472DE9F05F80460D46E6
:100A40001646002701F0C0FE074639462A463346BF
:100A500001F00700C0F1070ABAF1040F02D94FF004
:100A6000040A01E0C0F1070AD14600F1040ABAF114
:100A7000070F02D24FF0000A01E0A0F1030AD446AA
:100A80004FF0010A0AFA09FAAAF1010A0AEA020A6F
:100A90000AFA0CFA4FF0010B0BFA0CFBABF1010B4D
:100AA0000BEA030B4AEA0B042146404601F094FE90
:100AB000BDE8F09F00BF00F00702064B19684FF633
:100AC000FF031940044B0B4343EA0221014B196019
:100AD00000BF70470CED00E00000FA05F8B50446D1
:100AE00000260025207800F0010000286BD00027A8
:100AF0004348C06900F0805070B900BF4048C069E9
:100B000040F080503E49C8610846C06900F08050FE
:100B1000009000BF00BF01273A48006800F48070D1
:100B2000B0B93848006840F4807036490860FFF773
:100B3000FDFE064606E0FFF7F9FE801B642801D99A
:100B40000320F8BD2F48006800F480700028F2D020
:100B50002B48006A00F440752DB3A08800F4407063
:100B6000A84220D02648006A20F44075012026497A
:100B70000860002008602248056205F0010090B17D
:100B8000FFF7D4FE064608E0FFF7D0FE801B41F2D7
:100B90008831884201D90320D3E71948006A00F060
:100BA00002000028F0D01648006A20F44070616806
:100BB000084313490862012F04D10846C06920F098
:100BC0008050C86100BF207800F00200022807D1E1
:100BD0000B48406820F44040A16808430849486039
:100BE000207800F01000102807D10548406820F454
:100BF0008000E1680843024948600020A1E7000046
:100C000000100240007000404004424270B50446AB
:100C10000D460CB9012070BD5A48006800F007006D
:100C2000A8420ED25748006820F0070028435549D3
:100C300008600846006800F00700A84201D00120C3
:100C4000E9E7207800F0020002281DD1207800F0AA
:100C50000400042805D14C48406840F4E0604A494B
:100C60004860207800F00800082805D14648406810
:100C700040F46050444948604348406820F0F00028
:100C8000A168084340494860207800F0010078B32B
:100C90006068012806D13C48006800F4003090B933
:100CA0000120B8E76068022806D13748006800F0E4
:100CB000007040B90120AEE73348006800F0020040
:100CC00008B90120A7E73048406820F003006168B8
:100CD00008432D494860FFF729FE064609E0FFF763
:100CE00025FE801B41F28831884202D9032092E719
:100CF00007E02548406800F00C006168B0EB810F08
:100D0000EDD12048006800F00700A8420ED91D4828
:100D1000006820F0070028431A4908600846006868
:100D200000F00700A84201D0012074E7207800F00D
:100D30000400042807D11448406820F4E060E1680A
:100D4000084311494860207800F00800082808D1BD
:100D50000D48406820F46050216940EAC1000A490A
:100D6000486000F03FF808494968C1F30311074A99
:100D7000515CC8400649086006480068FFF7FCFD62
:100D8000002048E7002002400010024064290008CB
:100D90003000002028000020014800687047000053
:100DA0003000002000B5FFF7F7FF04494968C1F3A0
:100DB0000221034A515CC84000BD000000100240FF
:100DC0007429000800B5FFF7E7FF04494968C1F33B
:100DD000C221034A515CC84000BD0000001002401F
:100DE00074290008F0B585B00FF26C0C9CE8E01097
:100DF00001A8A0E8E0101CA52D68009500210022A4
:100E0000002300240020194D696801F00C05F5B19C
:100E1000042D02D0082D19D101E0154819E001ADCB
:100E2000C1F38346AC5D01F4803555B10F4D6D685B
:100E3000C5F340451DF805200D4D6543B5FBF2F3A4
:100E400002E00C4D04FB05F3184602E000BF084821
:100E500000BF00BF05B0F0BD020304050607080986
:100E60000A0B0C0D0E0F10100102000000100240C2
:100E700000127A0000093D00F8B504460CB90120C3
:100E8000F8BD207800F00100002878D0F8484068CC
:100E900000F00C0004280CD0F548406800F00C006D
:100EA000082811D1F248406800F48030B0F5803F46
:100EB0000AD1EF48006800F4003000285FD0606875
:100EC00000285CD10120DBE700BF6068B0F5803FFF
:100ED00006D1E748006840F48030E549086028E022
:100EE000606858B9E248006820F48030E049086042
:100EF0000846006820F4802008601AE06068B0F5B9
:100F0000A02F0BD1DA48006840F48020D84908604F
:100F10000846006840F4803008600AE0D448006861
:100F200020F48030D24908600846006820F4802010
:100F3000086000BF606888B1FFF7F8FC054606E06E
:100F4000FFF7F4FC401B642801D9032098E7C84848
:100F5000006800F400300028F2D010E0FFF7E6FC53
:100F6000054606E0FFF7E2FC401B642801D9032098
:100F700086E7BF48006800F400300028F2D12078EE
:100F800000F00200022857D1B948406800F00C0078
:100F900050B1B748406800F00C00082818D1B44898
:100FA000406800F4803098B9B148006800F0020051
:100FB00020B12069012801D0012061E7AC48006818
:100FC00020F0F800616940EAC100A949086033E0F7
:100FD0002069E8B10120A7490860FFF7A7FC054692
:100FE00006E0FFF7A3FC401B022801D9032047E7D6
:100FF0009F48006800F002000028F2D09C4800687A
:1010000020F0F800616940EAC1009949086013E0E6
:10101000002098490860FFF789FC054606E0FFF7C5
:1010200085FC401B022801D9032029E7904800686D
:1010300000F002000028F2D1207800F00800082813
:101040002DD1A069B8B101208B490860FFF76EFC73
:10105000054606E0FFF76AFC401B022801D9032081
:101060000EE78348406A00F002000028F2D0012019
:1010700000F0EEFF13E000207F490860FFF756FC08
:10108000054606E0FFF752FC401B022801D9032069
:10109000F6E67748406A00F002000028F2D1207896
:1010A00000F00400042873D100277148C06900F0E3
:1010B000805070B900BF6E48C06940F080506C49E4
:1010C000C8610846C06900F08050009000BF00BFB2
:1010D00001276A48006800F48070B0B9674800686A
:1010E00040F4807065490860FFF720FC054606E083
:1010F000FFF71CFC401B642801D90320C0E65F48B1
:10110000006800F480700028F2D000BFE068012879
:1011100006D15748006A40F001005549086227E0AF
:10112000E06858B95248006A20F00100504908624E
:101130000846006A20F00400086219E0E06805280B
:101140000BD14B48006A40F0040049490862084648
:10115000006A40F0010008620AE04548006A20F099
:101160000100434908620846006A20F00400086252
:1011700000BFE068A0B1FFF7D9FB054609E0FFF723
:10118000D5FB401B41F28831884202D9032077E623
:1011900022E03748006A00F002000028EFD012E099
:1011A000FFF7C4FB054608E0FFF7C0FB401B41F218
:1011B0008831884201D9032062E62D48006A00F098
:1011C00002000028F0D1012F05D12948C06920F084
:1011D00080502749C86100BFE069C8B3244840680F
:1011E00000F00C00082860D0E069022848D10020F7
:1011F00020490866FFF79AFB054606E0FFF796FBD5
:10120000401B022801D903203AE61948006800F083
:1012100000700028F2D1206AB0F5803F07D1144851
:10122000406820F40030A168084311494860D4E9BF
:10123000080108430E49496821F4741108430C4918
:10124000486001200B490866FFF770FB054607E080
:101250003DE0FFF76BFB401B022801D903200FE69E
:101260000348006800F000700028F2D02FE0000072
:1012700000100240000042428004424200700040E0
:10128000002014490866FFF751FB054606E0FFF70A
:101290004DFB401B022801D90320F1E50E480068F0
:1012A00000F000700028F2D111E0E069012800D1BF
:1012B000E6E50948466806F48031206A814204D197
:1012C00006F47011606A814201D00120D8E5002047
:1012D000D6E50000000042420010024070B504460E
:1012E0002546681EB0F1807F01D301200FE0681E03
:1012F0004FF0E02148610F214FF0FF3001F06CFA10
:1013000000204FF0E021886107200861002070BDB7
:101310007047704710B5024600BF92F83C000128A4
:1013200001D1022010BD012082F83C0000BF022044
:1013300082F83D00106843681068846823F07003E9
:101340000868034324F0800448680443106843603D
:1013500010688460012082F83D0000BF002082F800
:101360003C0000BF00BFDDE710B504460CB901200A
:1013700010BD94F83D0028B9002084F83C002046B8
:1013800000F00CF8022084F83D00211D206800F0D8
:10139000EFFE012084F83D000020E9E708B5094A86
:1013A000016891420DD100BF0749C96941F00401AC
:1013B000054AD1611146C96901F00401009100BFDD
:1013C00000BF08BD0008004000100240704710B583
:1013D000044620680069C0F34000D8B12068C068A6
:1013E000C0F34000B0B16FF0020021680861012035
:1013F00020772068806900F0030018B12046FFF7CD
:10140000E5FF05E0204600F0E1F8204600F07EF917
:101410000020207720680069C0F38000D8B12068E0
:10142000C068C0F38000B0B16FF0040021680861AB
:10143000022020772068806900F4407018B12046AF
:10144000FFF7C4FF05E0204600F0C0F8204600F09A
:101450005DF90020207720680069C0F3C000D8B192
:101460002068C068C0F3C000B0B16FF00800216808
:101470000861042020772068C06900F0030018B1DB
:101480002046FFF7A3FF05E0204600F09FF8204626
:1014900000F03CF90020207720680069C0F30010BC
:1014A000D8B12068C068C0F30010B0B16FF0100070
:1014B00021680861082020772068C06900F4407026
:1014C00018B12046FFF782FF05E0204600F07EF8C5
:1014D000204600F01BF9002020772068006900F00A
:1014E000010058B12068C06800F0010030B16FF011
:1014F000010021680861204600F06EF9206800694B
:10150000C0F3C01058B12068C068C0F3C01030B13B
:101510006FF08000216808612046FFF7F9FE20681F
:101520000069C0F3801058B12068C068C0F3801013
:1015300030B16FF0400021680861204600F04DF99D
:1015400020680069C0F3401058B12068C068C0F33B
:10155000401030B16FF02000216808612046FFF78D
:10156000D8FE10BD10B586B004460020029003904E
:10157000049005901249206888421FD100BF11488D
:10158000806940F008000F4988610846806900F0D2
:101590000800019000BF00BFC0200290022003900D
:1015A0000320059002A90848FFF722F80022012134
:1015B0001E20FFF741FA1E20FFF72EFA06B010BDDD
:1015C0000008004000100240000C0140704770B558
:1015D00004460D46164600BF94F83C00012801D190
:1015E000022070BD012084F83C0000BF022084F876
:1015F0003D0036B1042E1BD0082E31D00C2E5ED10A
:1016000045E02946206800F0FFFD2068806940F031
:101610000800216888612068806920F00400216842
:10162000886120688069296908432168886147E0EA
:101630002946206800F018FE2068806940F40060A8
:10164000216888612068806920F480602168886151
:1016500020688069296940EA0120216888612FE0BB
:101660002946206800F034FE2068C06940F0080078
:101670002168C8612068C06920F004002168C86141
:101680002068C069296908432168C86118E02946B3
:10169000206800F051FE2068C06940F400602168B5
:1016A000C8612068C06920F480602168C861206832
:1016B000C069296940EA01202168C86100E000BFD3
:1016C00000BF012084F83D0000BF002084F83C00EA
:1016D00000BF00BF85E710B504460CB9012010BD5E
:1016E00094F83D0028B9002084F83C00204600F022
:1016F0000CF8022084F83D00211D206800F038FD20
:10170000012084F83D000020E9E7704770470000A1
:1017100070B504460E4601223146206800F062FD95
:101720000D492068884201D1012000E0002028B145
:101730002068406C40F4004021684864206880685C
:1017400000F00705062D05D02068006840F0010074
:1017500021680860002070BD002C014030B50446AF
:101760000D4600222946206800F03CFD19492068FA
:10177000884201D1012000E0002090B100BF206824
:10178000006A41F21111084050B92068006A8910BE
:10179000084028B92068406C20F400402168486463
:1017A00000BF00BF2068006A41F21111084050B923
:1017B0002068006A8910084028B92068006820F075
:1017C00001002168086000BF012084F83D0000206E
:1017D00030BD0000002C014070477047704710B5C5
:1017E00004460CB9012010BDA06900B100E000BFA3
:1017F00094F8390028B9002084F83800204600F019
:1018000027F8242084F839002068C06820F40050AC
:101810002168C860204600F03FFE2068006920F47F
:101820009040216808612068406920F02A00216802
:1018300048612068C06840F400502168C8600020FA
:10184000E063202084F8390084F83A000020CAE7D9
:1018500010B586B0044600200290039004900590D5
:101860004D492068884249D100BF4C48806940F406
:1018700080404A4988610846806900F480400190B0
:1018800000BF00BF00BF0846806940F004008861C7
:101890000846806900F00400019000BF00BF4815B1
:1018A0000290022003900320059002A93C48FEF715
:1018B0009FFE4FF48060029000200390049002A9E4
:1018C0003748FEF795FE37483749086000204860E2
:1018D0000021354881608021C160002101614161A2
:1018E000202181610021C161FEF7ECFD08B1FEF706
:1018F00002FD00BF2C48606344624BE02B49206826
:10190000884247D100BF2548C06940F400302349D0
:10191000C8610846C06900F40030019000BF00BFF4
:1019200000BF0846806940F004008861084680696D
:1019300000F00400019000BF00BF042002900220CC
:1019400003900320059002A91548FEF751FE0820D8
:10195000029000200390049002A91148FEF748FE6F
:1019600010481430124908600020486000211048D7
:1019700081608021C1600021016141618161C1619B
:10198000FEF7A0FD08B1FEF7B6FC00BF0848606393
:10199000446200BF06B010BD003801400010024094
:1019A0000008014058000240340600200044004076
:1019B0007806002077B581B00446154694F83A00C1
:1019C000202850D1029800B115B9012004B070BD93
:1019D00000BF94F83800012801D10220F6E7012069
:1019E00084F8380000BF0298A062A5850020E0635B
:1019F000222084F83A001D48616B88621C48616BA4
:101A0000C8621C48616B08630020616B486302AECA
:101A100032682368191D2B46606BFEF787FD00BFF7
:101A200000200090206800680090206840680090C6
:101A300000BF00BF00BF002084F8380000BF20684E
:101A4000C06840F480702168C8602068406940F038
:101A50000100216848612068406940F04000216829
:101A600048610020B2E70220B0E70000112400081E
:101A700057240008C1230008704770472DE9F84338
:101A800004460D4616461F464FF0000994F83900EB
:101A900020285CD105B116B90120BDE8F88300BF4C
:101AA00094F83800012801D10220F6E7012084F8DB
:101AB000380000BF0020E063212084F83900FEF7E1
:101AC00035FF8146A684E6842BE0E08C401EE0844E
:101AD000A068B0F5805F16D14B46002280212046D9
:101AE000009700F0A9FD08B10320D6E7A846B8F892
:101AF0000000C0F3080021684860206908B9AD1CE7
:101B00000FE06D1C0DE04B4600228021204600971F
:101B100000F092FD08B10320BFE715F8010B216822
:101B20004860E08C0028D0D14B460022402120465E
:101B3000009700F081FD08B10320AEE7202084F873
:101B4000390000BF002084F8380000BFA5E702205C
:101B5000A3E700BFFEE7000008B500BF0E484069DC
:101B600040F001000C4948610846406900F001005E
:101B7000009000BF00BF002201210F20FEF75CFF94
:101B80000F20FEF749FF002201211020FEF754FF2D
:101B90001020FEF741FF08BD0010024000B585B0DF
:101BA0000020019002900390049000BF2A488069B1
:101BB00040F01000284988610846806900F0100054
:101BC000009000BF00BF00BF0846806940F02000C1
:101BD00088610846806900F02000009000BF00BFC7
:101BE00000BF0846806940F00400886108468069AB
:101BF00000F00400009000BF00BF0022022117483F
:101C0000FEF78EFE002210211448FEF789FE022006
:101C1000019001200290002003900220049001A96D
:101C20000E48FEF7E5FC10200190012002900020F4
:101C300003900220049001A90848FEF7D9FC012076
:101C400001900020029003900220049001A9034813
:101C5000FEF7CEFC05B000BD0010024000080140B8
:101C600000B589B00020079008901C216846FEF757
:101C700072FA1F481F4908600020486000211D4873
:101C8000816041F2BF21C160002101618161FFF7E4
:101C90006BFB08B1FEF72FFB1648FFF71CFD08B1E0
:101CA000FEF729FB00200790089007A91148FFF7CD
:101CB00031FB08B1FEF71FFB60200090002001906F
:101CC00002900490002269460A48FFF780FC08B1A0
:101CD000FEF711FB042269460648FFF778FC08B1BD
:101CE000FEF709FB0348FFF73DFC09B000BD00000B
:101CF00000080040E806002010B50B480B490860BA
:101D00004FF4E1304860002108488160C160016102
:101D10000C21416100218161C161FFF760FD08B1C3
:101D2000FEF7E9FA10BD000000380140B4050020BC
:101D300010B50B480B4908604FF4E13048600021B2
:101D400008488160C16001610C214161002181610D
:101D5000C161FFF744FD08B1FEF7CDFA10BD0000E8
:101D600000440040F405002000BFFEE700200249C7
:101D7000C860486008607047000000200348C068E1
:101D800040F2433190FBF1F070470000000000206A
:101D90001FB5FEF7CBFD12490968401A14281ED959
:101DA0001048C06840F2433190FBF1F000900121EF
:101DB0000D48FEF7ADFD019002210B48FEF7A8FD8E
:101DC00002900A480068C06A401C0949B1FBF0F063
:101DD0000390102269460120FEF732FA00BF1FBDB2
:101DE000140000200000002000080140E806002048
:101DF000006CDC0210B501210A48FEF789FD80B9AC
:101E00000948007C01280CD14FF47A70FEF767FA7C
:101E100001210448FEF77CFD18B900F08DF8FFF7AA
:101E2000A5FF10BD00080140000000200A48007C0A
:101E300048B909488068094908600748806840082F
:101E4000091D086007E00020044908600248806816
:101E50004008091D08607047000000203408004059
:101E600070B504460D46E00F0549087440F2433052
:101E70006043486000200860284600F081FA70BD89
:101E80000000002010B51848007CD0B91648C06882
:101E90001649884205DC1448C068401C1249C860D5
:101EA00002E000F049F810BD0F480068401C0E49E0
:101EB0000860084600684968884212DB00F03CF878
:101EC0000FE00948C068401E0749C860084600681E
:101ED000401E0860084600684968884201DC00F03E
:101EE0002BF800BFDFE7000000000020588C020044
:101EF00010B50E48406800B910BD01210C48FEF72E
:101F000007FD20B90948007C012800D1F4E7002032
:101F100008490968486200210648FFF7F9FB0421D7
:101F20000448FFF7F5FB00BFE6E7000000000020D3
:101F300000080140E806002010B500210348FFF723
:101F40000DFC04210148FFF709FC10BDE806002044
:101F500070470FB4FCB5002100226C46002308989E
:101F600018B10A9808B10B9818B90020FCBC5DF8AC
:101F700014FB10208DF800009DF81C008DF8010066
:101F8000BDF83000ADF8020009980190AA2610466D
:101F9000521C0A9F3E541046521C0A9F3E54002178
:101FA00016E0605CA52805D0605CAA2802D0605CC1
:101FB000552804D1A5261046521C0A9F3E54665C43
:101FC0001046521C0A9F3E54605C1844C3B2491C20
:101FD0000829E6D300211BE00898405CA52807D01B
:101FE0000898405CAA2803D00898405C552804D182
:101FF000A5261046521C0A9F3E540898405C18447F
:10200000C3B20898465C1046521C0A9F3E54491CB5
:1020100009988842E0D8A52B03D0AA2B01D0552BD4
:1020200004D1A5261046521C0A9F3E541046521C4D
:102030000A9E335455261046521C0A9F3E541046A1
:10204000521C0A9F3E540B98026001208EE7704795
:1020500008B508490968C9084FF47A72B1FBF2F172
:102060004143009100BF00BF00994A1E0092002921
:10207000F9D108BD30000020704710B5FEF75CFCB8
:1020800010BD00B593B0282109A8FEF764F814210B
:1020900004A8FEF760F800200090019002900390E1
:1020A0000120099000040A9000200B9001200D905F
:1020B00002201090C1031191C104129109A8FEF7EA
:1020C000DBFE08B1FEF717F90F20049002200590FF
:1020D000002006904FF480600790002008900121B6
:1020E00004A8FEF793FD08B1FEF705F91020009053
:1020F000800403906846FEF7F1FC08B1FEF7FBF898
:1021000013B000BD1148006840F001000F4908609D
:10211000084640680E4908400C4948600846006877
:102120000C490840094908600846006820F48020EE
:1021300008600846406820F4FE0048604FF41F0025
:102140008860C8030449086070470000001002401E
:102150000000FFF8FFFFF6FE08ED00E010B50348B1
:10216000FFF735F9FFF78EFE10BD0000E8060020EE
:1021700010B50268184B984208D0B0F1804F05D0D6
:10218000164B984202D0164B984203D122F07002AF
:102190004B681A43104B984208D0B0F1804F05D0DD
:1021A0000E4B984202D00E4B984203D122F440725B
:1021B000CB681A4322F080034C6943EA04020260B0
:1021C0008B68C3620B688362034B984201D10B6931
:1021D00003630123436110BD002C01400004004053
:1021E0000008004030B501F01F05012404FA05F392
:1021F000046A9C430462046A01F01F0502FA05F5B3
:102200002C43046230BD000030B5056A25F001059D
:102210000562026A4368846924F0700424F00304B0
:102220000D682C4322F002028D682A430D4DA8420E
:1022300006D100BF22F00802CD682A4322F0040232
:10224000084DA84207D123F4807323F400734D692D
:102250002B438D692B43436084614D684563026263
:1022600030BD0000002C014030B5056A25F0100596
:102270000562026A4368846924F4E04424F44074EB
:102280000D6844EA052422F020028D6842EA051216
:102290000E4DA84207D100BF22F08002CD6842EA6D
:1022A000051222F04002094DA84209D123F48063AF
:1022B00023F400634D6943EA85038D6943EA85038E
:1022C000436084614D688563026230BD002C01402B
:1022D00030B5056A25F480750562026A4368C469F1
:1022E00024F0700424F003040D682C4322F40072DF
:1022F0008D6842EA05220F4DA84207D100BF22F4A3
:102300000062CD6842EA052222F48062094DA842AB
:1023100009D123F4805323F400534D6943EA051394
:102320008D6943EA05134360C4614D68C563026269
:1023300030BD0000002C014030B5056A25F4805501
:102340000562036A4468C26922F4E04222F44072E2
:102350000D6842EA052223F400538D6843EA0533F1
:10236000064DA84204D124F480444D6944EA851402
:102370004460C2614D680564036230BD002C0140B9
:10238000B0F57A7F15D349F64041884211D8094902
:10239000B1FBF0F1084A916000BF11468968491EFF
:1023A000064A1268D16204498968491E034AD1600D
:1023B00000BF7047006CDC0200000020E80600202F
:1023C00070B506460025746A20684069C0F3C015E0
:1023D00094F83900212805D125B10020E084204659
:1023E00000F050F820684069C0F3801594F83A0076
:1023F000222805D125B10020E085204600F032F8E2
:10240000E06B40F01000E0632046FFF7E7F970BD95
:1024100070B505466C6A2868006800F02000B0B905
:102420000020E0852068C06820F480702168C860C2
:102430002068406920F001002168486120684069F7
:1024400020F0400021684861202084F83A002046AE
:10245000FFF712FB70BD70B50446656A2846FFF7AA
:102460000CFB70BD0168C96821F490710268D160ED
:102470000168496921F0010102685161202180F859
:102480003A1070470168C96821F0C0010268D16044
:10249000202180F83910704770B504462168096919
:1024A00021F44051E2681143226811612269A16858
:1024B0001143626941EA02052168C96841F20C6270
:1024C000914329432268D1602168496921F4407110
:1024D000A269114322685161564A2168914254D140
:1024E000FEF770FC00EBC00101EB00116268920086
:1024F000B1FBF2F100EBC00202EB001263689B003B
:10250000B2FBF3F26423B2FBF3F202EBC20303EB80
:102510000212A1EB8201322202EB01116422B1FB13
:10252000F2F101F0F00100EBC00202EB001263686F
:102530009B00B2FBF3F26423B2FBF3F201EB021255
:1025400000EBC00101EB001163689B00B1FBF3F1EC
:1025500000EBC00303EB00136668B600B3FBF6F3B1
:102560006426B3FBF6F303EBC30606EB0313A1EB00
:102570008301322303EB01116423B1FBF3F101F07A
:102580000F0111442268916053E0FEF70BFC00EB51
:10259000C00101EB001162689200B1FBF2F100EBA7
:1025A000C00202EB001263689B00B2FBF3F26423EB
:1025B000B2FBF3F202EBC20303EB0212A1EB8201C6
:1025C000322202EB01116422B1FBF2F101F0F001C1
:1025D00000EBC00202EB001263689B00B2FBF3F257
:1025E0006423B2FBF3F201EB021200EBC00101EB3A
:1025F000001163689B00B1FBF3F100EBC00303EB38
:1026000000136668B600B3FBF6F36426B3FBF6F37B
:1026100003EBC30606EB0313A1EB8301322303EBA9
:1026200001116423B1FBF3F101F00F0111442268A1
:10263000916070BD003801402DE9F04104460D461F
:1026400017469846069E21E0701CF8B12EB1FEF7A1
:102650006DF9A0EB0800B04218D92068C06820F4DA
:10266000D0702168C8602068406920F001002168AE
:102670004861202084F8390084F83A0000BF002027
:1026800084F8380000BF0320BDE8F08120680068AE
:102690002840A84201D1012000E00020B842D3D058
:1026A0000020F1E72DE9F04101460023486828B9F0
:1026B00088680E2802D20020BDE8F08188680E28C4
:1026C0007CD3D1E90102104410F8010C552875D1D2
:1026D000D1E90102104410F8020C55286ED10C23E8
:1026E00067E0D1E901021044C01A0078AA285BD142
:1026F000D1E901020244581C101A0078AA2853D1CB
:10270000D1E9010C8444581EACEB0005D81E86B2FA
:10271000002200270024B6F5FA7F01D90020CBE77C
:10272000002216E0A85CA52801D1501C82B215F841
:102730000280204604F1010C1FFA8CF4DFF880C0FF
:102740000CF80080B4F5FA7F01D10020B4E7501CEA
:1027500082B2B242E6DB002205E01948805C3844D0
:10276000C7B2501C82B2601E9042F6DCDFF850C047
:102770001CF80000B84215D100BFA4F10900D1F83F
:102780001080C8F800000CF10800C8609CF8000038
:10279000102804D19CF80100087001208CE700206B
:1027A0008AE70BE0002087E78868984201D1002083
:1027B00082E7181E03F1010293B292D100207BE759
:1027C0002807002000BFFEE702480068C0F302208F
:1027D000704700000CED00E010B5002804DB0A078C
:1027E000130E054A135406E00A07140E034A00F0BC
:1027F0000F031B1FD45410BD00E400E018ED00E0EF
:1028000002E008C8121F08C1002AFAD170477047B9
:10281000002001E001C1121F002AFBD17047000017
:10282000FEF796F8FFF72DFCFFF7B8F9FFF794F9DC
:10283000FFF716FA00214448FEF76AFF04214248D8
:10284000FEF766FF40480068C06840F001003E495E
:102850000968C860FFF750FAFFF76AFA80223B491F
:102860003B48FFF7A7F82C213A48FDF774FC69E0D4
:102870003848007B00285FD03648007B022806D00D
:10288000032821D004282FD0052850D12FE031482B
:10289000806904682F4880694668FFF74DFBE50FA3
:1028A0002D4890F90000854202D06420FDF78CFE8F
:1028B00031462046FFF7D4FAFFF71AFBFFF7B6FAC6
:1028C000E00F2549087033E022488069006828B18C
:1028D000012202212148FEF723F804E00022022110
:1028E0001E48FEF71DF823E0FFF726FB20E01948FD
:1028F00080690468174880694668FFF73FFA241A20
:10290000FFF71AFBE50F164890F90000854202D048
:102910006420FDF759FE31462046FFF7A1FAFFF784
:10292000E7FAFFF783FAE00F0D49087000E000BFF7
:1029300000BF002007490873FDF72CFCFFF728FAB9
:10294000FFF758FA94E70000E80600203400002062
:10295000B4050020BC060020210000200008014032
:10296000220000200000000000000000010203041B
:102970000607080900000000010203049C29000862
:10298000000000203400000000280008D0290008C2
:1029900034000020EC0C00001028000800000000AB
:1029A00000000000C0120000000000000000000055
:1029B0000000000000000000000000000000000017
:1029C0000000000010000000010000000024F400DE
:04000005080000ED02
:00000001FF
