:020000040800F2
:100000009025002001010008A12E000825290008E4
:10001000B92C0008E7010008B15D000800000000ED
:100020000000000000000000000000006133000834
:10003000950400080000000037330008633300080F
:100040001B0100081B0100081B0100081B01000820
:100050001B0100081B0100081B0100081B01000810
:100060001B0100081B0100081B0100081B01000800
:1000700029040008390400081B010008490400088D
:10008000590400081B0100081B0100081B0100089F
:10009000D95B00081B0100081B0100081B010008B8
:1000A0001B0100081B0100081B0100081B010008C0
:1000B0001B0100081B010008453400081B01000853
:1000C0001B0100081B0100081B0100081B010008A0
:1000D0001B0100081B0100081B010008153B00085C
:1000E0001B0100081B0100081B010008DFF80CD0F1
:1000F00000F03CF8004800470D5E00089025002005
:100100000648804706480047FEE7FEE7FEE7FEE7B1
:10011000FEE7FEE7FEE7FEE7FEE7FEE7ED33000859
:10012000ED00000840EA01039B0703D009E008C97D
:10013000121F08C0042AFAD203E011F8013B00F8AC
:10014000013B521EF9D27047D2B201E000F8012BF8
:10015000491EFBD270470022F6E710B513460A4647
:1001600004461946FFF7F0FF204610BD064C074D28
:1001700006E0E06840F0010394E807009847103477
:10018000AC42F6D3FFF7B6FFCC5F0008EC5F000887
:1001900070B58C1810F8015B15F0070301D110F849
:1001A000013B2A1106D110F8012B03E010F8016B76
:1001B00001F8016B5B1EF9D12B0705D40023521EF9
:1001C0000DD401F8013BFAE710F8013BCB1A921C61
:1001D00003E013F8015B01F8015B521EF9D5A1425F
:1001E000D8D3002070BD00BFFEE7000070B5054603
:1001F0000C461646042D15D007DC7DB1012D0ED01E
:10020000022D0DD0032D3FD10BE0202D0BD0212D41
:100210001FD0222D36D0232D36D134E035E034E006
:1002200033E032E031E02078617840EA0120A178C3
:1002300040EA0140E17840EA0160154948602179CF
:100240001348C16061790161A179816002F0E2FC2B
:100250001BE00F48007920700D488088000A60700C
:100260000B484068000CA07009484068000EE07020
:100270000748007B20710648007C60710448007AC2
:10028000A07102E001E000E000BF00BF002070BDEF
:10029000AC0700200020704710B500220449054833
:1002A00003F0AFFD0449034803F0A4FD002010BD96
:1002B00020150020740E00203811002070B504466F
:1002C0000D46288882B22146074800F04BF90120EC
:1002D000064908702146064803F08CFD044803F0E7
:1002E00065FD002070BD00006E0D00202A0000207A
:1002F000740E00202DE9F04104460D4600260A4800
:10030000D0F8B872D7F8140210B10120BDE8F0811E
:100310002A462146044803F074FD034803F0F5FD26
:1003200006463046F2E70000740E00202DE9F04149
:10033000244800684068C0F1800084B22248006808
:10034000A0421AD920480068C0F180062746F51956
:10035000802D03D91C480460BDE8F0811A4800686C
:100360001A4A811832461A48FFF7DCFE18498819E4
:100370003A461649FFF7D6FE11E013480068251AE1
:10038000802D02D910480460E6E70F480068221A61
:100390000D4800680D4BC1180D48FFF7C3FE0C490E
:1003A000094801610B49816124300749C86124383B
:1003B00045610C3005F06CFC08B10348046000BFD7
:1003C000CAE70000EC070020FC080020AC01002078
:1003D0002C020020AC02002070B58AB004460D4605
:1003E0001646002003908DF81040059506960C489F
:1003F000079003A808900020ADF82400DDE908016B
:10040000CDE9000104A80FC802F017FF039882B2DB
:1004100064230448079902F0C9F90AB070BD0000CE
:100420002C0300202C07002010B5024800F07EF9B4
:1004300010BD0000B808002010B5024800F076F9A1
:1004400010BD00007408002010B5024800F06EF9DD
:1004500010BD0000EC07002010B5024800F066F95E
:1004600010BD00003008002030B590F84050012445
:10047000AC40C56B6C60046863604468102C04D1A8
:100480000468A2600468E16003E00468A160046895
:10049000E26030BD704770B5044600F090F8054644
:1004A00000BF00F08CF8401BA042FAD370BD70472B
:1004B0000146B1F80001B1F80221904207DDB1F820
:1004C0000001C0F58070B1F8022110447047B1F806
:1004D0000001B1F80221904205DAB1F80201B1F849
:1004E0000021801AF2E70020F0E710B50446002052
:1004F000A4F80001A4F802014FF48070A4F80401EC
:1005000001462046FFF727FE10BD70B503460024C4
:1005100009B9601E70BD21E0B3F80001B3F80451C1
:1005200090FBF5F605FB1600B3F80251A84201D185
:100530002046EFE7B3F800011E5C2046651CACB214
:100540000E54B3F80001401CB3F8045190FBF5F6CB
:1005500005FB1600A3F80001501E82B2002ADBDC66
:100560002046D7E770B50346002409B9601E70BD68
:1005700021E0B3F80201401CB3F8045190FBF5F6FA
:1005800005FB1600B3F80051A84201D12046EEE762
:100590002046641C085CB3F802515855B3F80201B8
:1005A000401CB3F8045190FBF5F605FB1600A3F8C8
:1005B0000201501E82B2002ADBDC2046D7E72DE97B
:1005C000F0414FF47A754FF0E02044698069271AB2
:1005D00007FB05F0B0FBF4F800F0AAFB00EB4001CC
:1005E000C1EBC01008EBC0063046BDE8F08100004A
:1005F00070B50A480468001D0568001D066834448B
:1006000054B108220649204602F08EF9042204491A
:100610001031284602F088F970BD0000E8F7FF1F8E
:10062000720000200146002291F82100022808D023
:100630000420886300BF002081F8200000BF012053
:1006400070470868006820F00E000B6818600868A2
:10065000006820F001000B68186091F8403001201C
:100660009840CB6B5860012081F8210000BF00202A
:1006700081F8200000BF1046E2E7000070B5044694
:10068000002594F82100022803D00420A06301254E
:1006900048E02068006820F00E00216808602068AB
:1006A000006820F00100216808601F492068884226
:1006B00001D1012026E01C4914312068884201D173
:1006C00010201FE0184928312068884201D1801588
:1006D00018E015493C312068884201D1801411E0AE
:1006E000114950312068884202D14FF4803009E02E
:1006F0000D4964312068884202D14FF4801001E036
:100700004FF08070084908394860012084F82100C2
:1007100000BF002084F8200000BF606B10B12046AD
:10072000616B8847284670BD0800024070B50446DA
:10073000E06B05682068066894F840100420884043
:100740002840002846D006F00400002842D0206847
:10075000006800F0200028B92068006820F004003C
:100760002168086057492068884201D1042027E0A9
:10077000544914312068884201D1402020E0514979
:1007800028312068884201D1001519E04D493C31DB
:100790002068884202D14FF4804011E0494950312D
:1007A0002068884202D14FF4802009E04549643135
:1007B0002068884202D14FF4800001E04FF0806051
:1007C000404908394860E06A00287AD02046E16A4A
:1007D000884776E094F84010022088402840A0B373
:1007E00006F0020088B32068006800F0200040B9DD
:1007F0002068006820F00A0021680860012084F861
:10080000210030492068884201D1022028E02D498A
:1008100014312068884201D1202021E02949283163
:100820002068884201D140151AE026493C312068F1
:10083000884202D14FF4005012E022495031206822
:10084000884203D14FF400300AE017E01D496431BB
:100850002068884202D14FF4001001E04FF0007090
:1008600018490839486000BF002084F8200000BF04
:10087000A06A30B32046A16A884722E094F840106D
:10088000082088402840E0B106F00800C8B1206880
:10089000006820F00E002168086094F840100120E4
:1008A0008840E16B48600120A06384F8210000BF0C
:1008B000002084F8200000BF206B10B12046216B7F
:1008C000884770BD080002400146002209B9012096
:1008D0007047164B0868C01A1423B0FBF3F0800071
:1008E000086412480838C863022081F821000868AB
:1008F000026843F6F0708243D1E901031843CB68E4
:1009000018430B6918434B6918438B691843CB692B
:10091000184302430868026000208863012081F8C0
:100920002100002081F8200000BFD1E7080002402C
:100930002DE9F04104460D4616461F464FF00008CB
:1009400000BF94F82000012802D10220BDE8F08108
:10095000012084F8200000BF94F8210001282CD148
:10096000022084F821000020A0632068006820F0A5
:100970000100216808603B46324629462046FFF7C1
:1009800073FDE06A30B12068006840F00E00216815
:1009900008600BE02068006820F00400216808600F
:1009A0002068006840F00A0021680860206800683C
:1009B00040F001002168086006E000BF002084F8D4
:1009C000200000BF4FF002084046BFE770B5044664
:1009D00000F0AEF906462546681C10B104480078C0
:1009E000054400BF00F0A4F9801BA842FAD370BDF3
:1009F000940000202DE9F8470346002294466EE15A
:100A00004FF0010808FA02F4D1F8008008EA040067
:100A1000A0427DD1DFF8DCA2D1F80480A8EB0A095E
:100A2000D0453AD014DCB8F1030F50D009DCB8F14E
:100A3000000F31D0B8F1010F1CD0B8F1020F49D12D
:100A400020E0B8F1110F18D0B8F1120F42D11EE01A
:100A5000B9F5881F25D006DCB9F5803F20D0B9F55F
:100A6000801F37D11AE0B9F5001F18D0B9F5041F5F
:100A700030D117E0D1F80CC02DE0D1F80C8008F18E
:100A8000040C28E0D1F80C8008F1080C23E0D1F820
:100A90000C8008F10C0C1EE000BF00BF00BF00BFBF
:100AA00000BF00BFD1F80880B8F1000F02D14FF0AD
:100AB000040C0BE0D1F80880B8F1010F03D14FF01E
:100AC000080C1C6102E04FF0080C5C6103E04FF081
:100AD000000C00E000BF00BFFF2801D8984601E0ED
:100AE00003F104084646FF2802D84FEA820803E0D3
:100AF000A2F108084FEA88084746D6F800804FF070
:100B00000F0909FA07F928EA09080CFA07F900E0C1
:100B100088E048EA0908C6F80080D1F8048008F0A7
:100B20008058B8F1805F7DD100BFDFF8CC81D8F864
:100B3000188048F00108DFF8C091C9F81880C8464D
:100B4000D8F8188008F00108CDF8008000BF00BF79
:100B50004FEAB9384FEA920958F829504FEA82789B
:100B60004FEA18794FF00F0808FA09F825EA080546
:100B7000DFF88881434502D14FF0000816E0DFF826
:100B80008081434502D14FF001080FE0DFF8748106
:100B9000434502D14FF0020808E0DFF86C8143457D
:100BA00002D14FF0030801E04FF004084FEA8279C8
:100BB0004FEA197908FA09F848EA0505DFF84C8187
:100BC0004FEA920948F82950D1F8048008F4803897
:100BD000B8F5803F0AD1DFF83881D8F8008048EABC
:100BE0000008DFF82C91C9F8008009E0DFF82081C7
:100BF000D8F8008028EA0008DFF81491C9F80080CE
:100C0000D1F8048008F40038B8F5003F10D1DFF8BF
:100C1000008108F10408D8F8008048EA0008DFF8ED
:100C2000F09000E05AE009F10409C9F800800DE0F5
:100C3000DFF8DC8008F10408D8F8008028EA000812
:100C4000DFF8CC9009F10409C9F80080D1F80480DC
:100C500008F48018B8F5801F0ED1DFF8B48008F1D1
:100C60000808D8F8008048EA0008DFF8A49009F1E5
:100C70000809C9F800800DE0DFF8948008F1080841
:100C8000D8F8008028EA0008DFF8849009F1080904
:100C9000C9F80080D1F8048008F40018B8F5001FE6
:100CA0000ED1DFF86C8008F10C08D8F8008048EA13
:100CB0000008DFF85C9009F10C09C9F800800DE02C
:100CC000DFF84C8008F10C08D8F8008028EA00080A
:100CD000DFF83C9009F10C09C9F80080521CD1F8EA
:100CE000008028FA02F8B8F1000F7FF489AEBDE861
:100CF000F8870000000011100010024000080140B9
:100D0000000C0140001001400014014008000140A7
:100D100000040140024693680B400BB1012000E043
:100D2000002070470AB1016101E00B0403617047C4
:100D300001480068704700008C00002003480068EC
:100D40000349097808440149086070478C00002075
:100D50009400002010B50848006840F010000649D3
:100D60000860032000F0A8F8002000F007F800F069
:100D70002BF8002010BD00000020024070B5044692
:100D80000E4800784FF47A71B1FBF0F00C49096815
:100D9000B1FBF0F5284601F00BF808B1012070BD59
:100DA000102C07D200222146501E00F047F80548BB
:100DB000046001E00120F2E70020F0E79400002049
:100DC000980000209000002008B500BF11488069FD
:100DD00040F001000F4988610846806900F0010079
:100DE000009000BF00BF00BF0846C06940F08050BF
:100DF000C8610846C06900F08050009000BF00BF85
:100E000000BF0549486820F0E06040F0007048608D
:100E100000BF08BD00100240000001400146084626
:100E2000002809DB00F01F0301229A4043099B00C0
:100E300003F1E023C3F8002100BF70472DE9F05F04
:100E400080460D461646002704F0B4FF0746394693
:100E50002A46334601F00700C0F1070ABAF1040F31
:100E600002D94FF0040A01E0C0F1070AD14600F1AF
:100E7000040ABAF1070F02D24FF0000A01E0A0F114
:100E8000030AD4464FF0010A0AFA09FAAAF1010A44
:100E90000AEA020A0AFA0CFA4FF0010B0BFA0CFBF1
:100EA000ABF1010B0BEA030B4AEA0B042146404667
:100EB00004F088FFBDE8F09F00BF00F00702064B7A
:100EC00019684FF6FF031940044B0B4343EA022114
:100ED000014B196000BF70470CED00E00000FA05FF
:100EE00070B505460C4604F08000802806D104F059
:100EF000070605F1280000EB461103E005F59470A4
:100F000000EB44111AB900200873CB8004E00120E3
:100F100008730B81180C4881002070BD704770B5B4
:100F200004460D4604F1280101EB45114A692946A2
:100F3000D4F8680203F0F8FA70BD70B504460D46A7
:100F400004F5947101EB45114A692946D4F8680209
:100F500003F06AFB70BD70B504460E4606F08000D3
:100F6000802808D106F0070104F1280000EB4115A4
:100F70000120687007E006F0070104F5947000EBAB
:100F800041150020687006F00700287000BF94F833
:100F90002802012801D1022070BD012084F8280216
:100FA00000BF2946206804F0E8F900BF002084F85B
:100FB000280200BF00BFEFE770B504460E4606F0FA
:100FC0000F006168884201D9012070BD06F08000E1
:100FD000802808D106F0070104F1280000EB411534
:100FE0000120687007E006F0070104F5947000EB3B
:100FF0004115002068700020A87006F007002870D6
:1010000000BF94F82802012801D10220DDE7012069
:1010100084F8280200BF2946206804F00EFB00BFB8
:10102000002084F8280200BF00BFCEE7024601F08E
:10103000070302F5947000EB4310C06970472DE977
:10104000F04705460E4690461F464FF0000906F051
:101050008000802808D106F0070105F1280000EB88
:1010600041140120607007E006F0070105F5947057
:1010700000EB41140020607006F007002070C4F8F7
:101080001080E770607808B12078E081022F01D1EC
:101090000020207100BF95F82802012802D102200B
:1010A000BDE8F087012085F8280200BF21462868A6
:1010B00003F014FF00BF002085F8280200BF484657
:1010C000EEE72DE9F04105460E461746984606F034
:1010D000070105F5947000EB41146761C4F81880AE
:1010E0000020E061607006F00700207006F0070045
:1010F00020B92146286804F03BFB03E0214628681C
:1011000004F036FB0020BDE8F08170B504460D46C2
:1011100005F007006168884201D9012070BD05F023
:101120008000802808D105F0070104F1280000EBB9
:1011300041160120707005E004F5947000EB45162F
:10114000002070700120B07005F00700307000BF03
:1011500094F82802012801D10220DFE7012084F859
:10116000280200BF3146206804F0D4FA05F00700D9
:1011700020B904F50C71206804F05CFA00BF00206F
:1011800084F8280200BF00BFC8E72DE9F0410546FA
:101190000E461746984606F0070105F1280000EBB9
:1011A00041146761C4F818800020E061012060707C
:1011B00006F00700207006F0070020B921462868D5
:1011C00004F0D6FA03E02146286804F0D1FA0020A2
:1011D000BDE8F08110B50446206804F005FD00F478
:1011E0000040B0F5004F02D1204601F05AFE2068C1
:1011F00004F0FAFC00F48060B0F5806F0ED1206836
:10120000B0F8440020F480602168A1F84400204632
:1012100000F05AF90021204600F076F9206804F029
:10122000E3FC00F48040B0F5804F07D12068B0F8AF
:10123000440020F480402168A1F84400206804F0B4
:10124000D3FC00F40050B0F5005F07D12068B0F87F
:10125000440020F400502168A1F84400206804F004
:10126000C3FC00F48050B0F5805F1CD12068B0F85A
:1012700040004FF6FB7108402168A1F8400020684B
:10128000B0F840004FF6F77108402168A1F840001F
:10129000204600F02BF92068B0F8440020F480507C
:1012A0002168A1F84400206804F09EFC00F400606E
:1012B000B0F5006F2AD12068B0F8400040F0080077
:1012C0002168A1F840002068B0F8440020F40060D4
:1012D0002168A1F844002068B0F8400040F0040004
:1012E0002168A1F84000206804F07EFC00F48050E2
:1012F000B0F5805F07D12068B0F8440020F480503A
:101300002168A1F84400204600F040F9206804F06C
:101310006BFC00F40070B0F5007F0AD12068B0F8D3
:10132000440020F400702168A1F84400204600F039
:10133000E4F8206804F058FC00F48070B0F5807F79
:1013400007D12068B0F8440020F480702168A1F82B
:10135000440010BD30B585B0044614B9012005B075
:1013600030BD94F8290228B9002084F828022046CC
:1013700000F088F8032084F82902206804F050F96E
:10138000142204F110016846FEF7CCFE94E80F0029
:1013900003F0EFFF20B1022084F829020120DEE7EC
:1013A0000021206804F049FC002526E0012104F119
:1013B000280000EB4510417004F1280000EB4510B7
:1013C000057004F1280000EB4510C581002104F1EF
:1013D000280000EB4510C17004F1280000EB451017
:1013E000016104F1280000EB4510416104F128007F
:1013F00000EB45108161681CC5B26068A842D5D871
:10140000002520E0002104F5947000EB45104170A8
:1014100004F5947000EB4510057004F5947000EB32
:101420004510C17004F5947000EB4510016104F59E
:10143000947000EB4510416104F5947000EB451089
:101440008161681CC5B26068A842DBD8142204F12F
:1014500010016846FEF766FE94E80F0004F0D1F82C
:1014600020B1022084F82902012078E7002084F8C6
:101470002400012084F82902206804F0BFF800202D
:101480006DE7000038B504460D492068884215D143
:1014900000BF0C48C06940F400000A49C861084612
:1014A000C06900F40000009000BF00BF0022114698
:1014B0001420FFF7C3FC1420FFF7B0FC38BD000078
:1014C000005C00400010024070B504460125A06891
:1014D000022801D0FEF7EBFF2946D4F8680203F09A
:1014E000D3F9D4F8680203F085F970BD10B504464D
:1014F000D4F8680203F0ACF910BD10B50446D4F876
:10150000680203F0B0F910BD70B504460D4600BF87
:1015100094F82802012801D1022070BD012084F82E
:10152000280200BF84F824502946206804F088FB74
:1015300000BF002084F8280200BF00BFEDE710B50F
:10154000044604F50C71D4F8680203F0B4F910BD38
:1015500010B5044600BF94F82802012801D10220EA
:1015600010BD012084F8280200BF01212046FFF7AA
:10157000D5FC206804F03FF8206804F023FB00BF8E
:10158000002084F8280200BF00BFE9E710B5044638
:10159000D4F8680203F0E8F9A06928B103480068AC
:1015A00040F006000149086010BD000010ED00E0A9
:1015B000F8B5044600260025207800F00100002838
:1015C0006BD000274348C06900F0805070B900BF5D
:1015D0004048C06940F080503E49C8610846C06933
:1015E00000F08050009000BF00BF01273A4800681B
:1015F00000F48070B0B93848006840F48070364913
:101600000860FFF795FB064606E0FFF791FB801B9D
:10161000642801D90320F8BD2F48006800F48070C9
:101620000028F2D02B48006A00F440752DB3A08842
:1016300000F44070A84220D02648006A20F440758B
:10164000012026490860002008602248056205F054
:10165000010090B1FFF76CFB064608E0FFF768FB5E
:10166000801B41F28831884201D90320D3E7194811
:10167000006A00F002000028F0D01648006A20F44A
:1016800040706168084313490862012F04D108467D
:10169000C06920F08050C86100BF207800F00200CF
:1016A000022807D10B48406820F44040A168084355
:1016B00008494860207800F01000102807D105483C
:1016C000406820F48000E168084302494860002037
:1016D000A1E70000001002400070004040044242B8
:1016E00070B504460D460CB9012070BD5A4800681B
:1016F00000F00700A8420ED25748006820F007000B
:101700002843554908600846006800F00700A842D1
:1017100001D00120E9E7207800F0020002281DD165
:10172000207800F00400042805D14C48406840F4BB
:10173000E0604A494860207800F00800082805D198
:101740004648406840F46050444948604348406817
:1017500020F0F000A168084340494860207800F07C
:10176000010078B36068012806D13C48006800F4A5
:10177000003090B90120B8E76068022806D13748E8
:10178000006800F0007040B90120AEE733480068FF
:1017900000F0020008B90120A7E73048406820F0B7
:1017A0000300616808432D494860FFF7C1FA064607
:1017B00009E0FFF7BDFA801B41F28831884202D967
:1017C000032092E707E02548406800F00C006168BC
:1017D000B0EB810FEDD12048006800F00700A8426F
:1017E0000ED91D48006820F0070028431A490860F8
:1017F0000846006800F00700A84201D0012074E705
:10180000207800F00400042807D11448406820F430
:10181000E060E168084311494860207800F0080062
:10182000082808D10D48406820F46050216940EA3A
:10183000C1000A49486000F03FF808494968C1F30F
:101840000311074A515CC840064908600648006811
:10185000FFF794FA002048E7002002400010024001
:10186000B45F000898000020900000200148006844
:10187000704700009800002000B5FFF7F7FF04490B
:101880004968C1F30221034A515CC84000BD000011
:1018900000100240C45F000800B5FFF7E7FF0449ED
:1018A0004968C1F3C221034A515CC84000BD000031
:1018B00000100240C45F0008F0B585B00FF26C0C58
:1018C0009CE8E01001A8A0E8E0101CA52D68009598
:1018D00000210022002300240020194D696801F036
:1018E0000C05F5B1042D02D0082D19D101E01548E1
:1018F00019E001ADC1F38346AC5D01F4803555B10B
:101900000F4D6D68C5F340451DF805200D4D65432D
:10191000B5FBF2F302E00C4D04FB05F3184602E0C0
:1019200000BF084800BF00BF05B0F0BD02030405BA
:10193000060708090A0B0C0D0E0F1010010200001B
:101940000010024000127A0000093D00F8B504467C
:101950000CB90120F8BD207800F00100002878D0F3
:10196000F848406800F00C0004280CD0F5484068A6
:1019700000F00C00082811D1F248406800F48030D3
:10198000B0F5803F0AD1EF48006800F4003000282D
:101990005FD0606800285CD10120DBE700BF606891
:1019A000B0F5803F06D1E748006840F48030E54953
:1019B000086028E0606858B9E248006820F4803088
:1019C000E04908600846006820F4802008601AE0BA
:1019D0006068B0F5A02F0BD1DA48006840F4802091
:1019E000D84908600846006840F4803008600AE082
:1019F000D448006820F48030D24908600846006866
:101A000020F48020086000BF606888B1FFF790F97B
:101A1000054606E0FFF78CF9401B642801D9032036
:101A200098E7C848006800F400300028F2D010E0C1
:101A3000FFF77EF9054606E0FFF77AF9401B6428B8
:101A400001D9032086E7BF48006800F40030002871
:101A5000F2D1207800F00200022857D1B94840683E
:101A600000F00C0050B1B748406800F00C000828A6
:101A700018D1B448406800F4803098B9B148006883
:101A800000F0020020B12069012801D0012061E7A7
:101A9000AC48006820F0F800616940EAC100A9493B
:101AA000086033E02069E8B10120A7490860FFF72A
:101AB0003FF9054606E0FFF73BF9401B022801D934
:101AC000032047E79F48006800F002000028F2D09A
:101AD0009C48006820F0F800616940EAC10099491B
:101AE000086013E0002098490860FFF721F90546D7
:101AF00006E0FFF71DF9401B022801D9032029E762
:101B00009048006800F002000028F2D1207800F030
:101B1000080008282DD1A069B8B101208B490860C0
:101B2000FFF706F9054606E0FFF702F9401B022819
:101B300001D903200EE78348406A00F00200002824
:101B4000F2D0012001F0F8FB13E000207F4908608B
:101B5000FFF7EEF8054606E0FFF7EAF8401B02281B
:101B600001D90320F6E67748406A00F00200002819
:101B7000F2D1207800F00400042873D100277148C6
:101B8000C06900F0805070B900BF6E48C06940F075
:101B900080506C49C8610846C06900F080500090D0
:101BA00000BF00BF01276A48006800F48070B0B928
:101BB0006748006840F4807065490860FFF7B8F82E
:101BC000054606E0FFF7B4F8401B642801D903205E
:101BD000C0E65F48006800F480700028F2D000BFC3
:101BE000E068012806D15748006A40F001005549D5
:101BF000086227E0E06858B95248006A20F0010006
:101C0000504908620846006A20F00400086219E0A2
:101C1000E06805280BD14B48006A40F004004949B0
:101C200008620846006A40F0010008620AE0454880
:101C3000006A20F00100434908620846006A20F06B
:101C40000400086200BFE068A0B1FFF771F8054624
:101C500009E0FFF76DF8401B41F28831884202D954
:101C6000032077E622E03748006A00F002000028EF
:101C7000EFD012E0FFF75CF8054608E0FFF758F8F0
:101C8000401B41F28831884201D9032062E62D4889
:101C9000006A00F002000028F0D1012F05D1294888
:101CA000C06920F080502749C86100BFE069C8B30F
:101CB0002448406800F00C00082860D0E069022841
:101CC00048D1002020490866FFF732F8054606E0B3
:101CD000FFF72EF8401B022801D903203AE61948E5
:101CE000006800F000700028F2D1206AB0F5803F53
:101CF00007D11448406820F40030A1680843114916
:101D00004860D4E9080108430E49496821F4741178
:101D100008430C49486001200B490866FFF708F8A2
:101D2000054607E03DE0FFF703F8401B022801D914
:101D300003200FE60348006800F000700028F2D08E
:101D40002FE00000001002400000424280044242A6
:101D500000700040002014490866FEF7E9FF0546C0
:101D600006E0FEF7E5FF401B022801D90320F1E55C
:101D70000E48006800F000700028F2D111E0E06920
:101D8000012800D1E6E50948466806F48031206A5A
:101D9000814204D106F47011606A814201D00120B1
:101DA000D8E50020D6E500000000424200100240C5
:101DB00070B504462546681EB0F1807F01D301202E
:101DC0000FE0681E4FF0E02148610F214FF0FF3017
:101DD00003F0F8FF00204FF0E02188610720086140
:101DE000002070BD7047704710B5024600BF92F8E2
:101DF0003C00012801D1022010BD012082F83C00E6
:101E000000BF022082F83D001068436810688468B3
:101E100023F070030868034324F0800448680443F7
:101E20001068436010688460012082F83D0000BFA4
:101E3000002082F83C0000BF00BFDDE710B504467B
:101E40000CB9012010BD94F83D0028B9002084F899
:101E50003C00204600F00CF8022084F83D00211DD3
:101E6000206801F0F9FA012084F83D000020E9E73C
:101E700008B5094A016891420DD100BF0749C969F7
:101E800041F00401054AD1611146C96901F004011C
:101E9000009100BF00BF08BD0008004000100240D4
:101EA000704710B5044620680069C0F34000D8B1FF
:101EB0002068C068C0F34000B0B16FF00200216834
:101EC0000861012020772068806900F0030018B1C4
:101ED0002046FFF7E5FF05E0204600F0E1F8204648
:101EE00000F07EF90020207720680069C0F38000B0
:101EF000D8B12068C068C0F38000B0B16FF00400B2
:101F000021680861022020772068806900F4407011
:101F100018B12046FFF7C4FF05E0204600F0C0F8E6
:101F2000204600F05DF90020207720680069C0F3AA
:101F3000C000D8B12068C068C0F3C000B0B16FF075
:101F4000080021680861042020772068C06900F03B
:101F5000030018B12046FFF7A3FF05E0204600F07C
:101F60009FF8204600F03CF90020207720680069A7
:101F7000C0F30010D8B12068C068C0F30010B0B141
:101F80006FF0100021680861082020772068C06980
:101F900000F4407018B12046FFF782FF05E02046AC
:101FA00000F07EF8204600F01BF900202077206822
:101FB000006900F0010058B12068C06800F001001D
:101FC00030B16FF0010021680861204600F06EF921
:101FD00020680069C0F3C01058B12068C068C0F321
:101FE000C01030B16FF08000216808612046FFF713
:101FF000F9FE20680069C0F3801058B12068C068FD
:10200000C0F3801030B16FF04000216808612046B5
:1020100000F04DF920680069C0F3401058B1206805
:10202000C068C0F3401030B16FF020002168086133
:102030002046FFF7D8FE10BD10B586B0044600203C
:1020400002900390049005901249206888421FD1A5
:1020500000BF1148806940F008000F4988610846B8
:10206000806900F00800019000BF00BFC02002900E
:10207000022003900320059002A90848FEF7BAFC4D
:10208000002201211E20FEF7D9FE1E20FEF7C6FE0B
:1020900006B010BD0008004000100240000C0140D6
:1020A000704770B504460D46164600BF94F83C00D4
:1020B000012801D1022070BD012084F83C0000BF3E
:1020C000022084F83D0036B1042E1BD0082E31D0FA
:1020D0000C2E5ED145E02946206801F009FA2068FF
:1020E000806940F00800216888612068806920F0DC
:1020F0000400216888612068806929690843216893
:10210000886147E02946206801F022FA206880694A
:1021100040F40060216888612068806920F4806054
:102120002168886120688069296940EA0120216866
:1021300088612FE02946206801F03EFA2068C069D6
:1021400040F008002168C8612068C06920F00400E0
:102150002168C8612068C069296908432168C8618D
:1021600018E02946206801F05BFA2068C06940F455
:1021700000602168C8612068C06920F4806021681F
:10218000C8612068C069296940EA01202168C861E6
:1021900000E000BF00BF012084F83D0000BF002028
:1021A00084F83C0000BF00BF85E710B504460CB9B9
:1021B000012010BD94F83D0028B9002084F83C00AF
:1021C000204600F00CF8022084F83D00211D206814
:1021D00001F042F9012084F83D000020E9E7704752
:1021E0007047000070B504460E4601223146206853
:1021F00001F06CF90D492068884201D1012000E00E
:10220000002028B12068406C40F4004021684864F8
:102210002068806800F00705062D05D0206800685A
:1022200040F0010021680860002070BD002C0140D2
:1022300030B504460D4600222946206801F046F9D3
:1022400019492068884201D1012000E0002090B1A6
:1022500000BF2068006A41F21111084050B920689F
:10226000006A8910084028B92068406C20F40040BA
:102270002168486400BF00BF2068006A41F2111164
:10228000084050B92068006A8910084028B92068C1
:10229000006820F001002168086000BF012084F878
:1022A0003D00002030BD0000002C01407047704709
:1022B00070B50446002520684069C0F3C01594F845
:1022C000390021280ED16DB12068406920F08000CE
:1022D00021684861206B10B1206BFEF7A3F92046FE
:1022E00001F080FA20684069C0F3801594F83A0044
:1022F00022280ED16DB12068406920F0400021688D
:102300004861606B10B1606BFEF78CF9204601F0FC
:1023100049FA002070BD70472DE9F0470446206857
:1023200005682068C668206847694FF00008C14604
:1023300005F00F08B8F1000F0AD105F0200038B100
:1023400006F0200020B1204601F056FABDE8F087E3
:10235000B8F1000F6DD007F0010018B906F49070C5
:10236000002866D005F0010030B106F4807018B185
:10237000E06B40F00100E06305F0040030B107F0CD
:10238000010018B1E06B40F00200E06305F00200CC
:1023900030B107F0010018B1E06B40F00400E063D9
:1023A00005F0080030B107F0010018B1E06B40F013
:1023B0000800E063E06B68B305F0200028B106F088
:1023C000200010B1204601F017FA20684069C0F3E0
:1023D0008019E06B00F0080010B9B9F1000F22D0AD
:1023E000204601F0DFF92068406900F04000B0B1FC
:1023F0002068406920F0400021684861606B50B15E
:102400001748616B4863606BFEF738F910B1606B79
:10241000416B88470CE02046FFF77DFF08E020462F
:10242000FFF779FF04E02046FFF775FF0020E06327
:102430008CE705F0800030B106F0800018B120462E
:1024400001F0FEFA82E705F0400030B106F04000EE
:1024500018B1204601F0B6F978E700BF76E7000032
:10246000A936000810B504460CB9012010BDA069BA
:1024700000B100E000BF94F8390028B9002084F8CA
:102480003800204600F028F8242084F8390020681D
:10249000C06820F400502168C860204601F000FAAE
:1024A0002068006920F49040216808612068406934
:1024B00020F02A00216848612068C06840F400507C
:1024C0002168C8600020E063202084F8390084F887
:1024D0003A000020CAE7000010B586B0044600208C
:1024E000029003900490059074492068884249D175
:1024F00000BF7348806940F4804071498861084694
:10250000806900F48040019000BF00BF00BF084612
:10251000806940F0040088610846806900F004008A
:10252000019000BF00BF48150290022003900320D5
:10253000059002A96348FEF75DFA4FF480600290AF
:1025400000200390049002A95E48FEF753FA5E480B
:102550005E4908600020486000215C48816080215D
:10256000C160002101614161202181610021C161BF
:10257000FEF7AAF908B1FDF79AFF00BF5348606360
:10258000446298E052492068884247D100BF4C48D5
:10259000C06940F400304A49C8610846C06900F487
:1025A0000030019000BF00BF00BF0846806940F0C6
:1025B000040088610846806900F00400019000BFB3
:1025C00000BF04200290022003900320059002A97E
:1025D0003C48FEF70FFA0820029000200390049078
:1025E00002A93848FEF706FA37481430394908601E
:1025F000002048600021374881608021C1600021AF
:10260000016141618161C161FEF75EF908B1FDF7C9
:102610004EFF00BF2F48606344624CE02E492068A3
:10262000884248D100BF2648C06940F48020244930
:10263000C8610846C06900F48020019000BF00BF57
:1026400000BF0846806940F008008861084680693C
:1026500000F00800019000BF00BF081502900220A2
:1026600003900320059002A91C48FEF7C3F94FF41C
:102670000060029000200390049002A91748FEF722
:10268000B9F911482838164908600020486000212F
:10269000134881608021C160002101614161816135
:1026A000C161FEF711F908B1FDF701FF00BF0C4849
:1026B0006063446200BF06B010BD000000380140F6
:1026C000001002400008014058000240EC070020C2
:1026D000004400403008002000480040000C014049
:1026E0007408002077B581B00446154694F83A0086
:1026F000202850D1029800B115B9012004B070BD56
:1027000000BF94F83800012801D10220F6E701202B
:1027100084F8380000BF0298A062A5850020E0631D
:10272000222084F83A001D48616B88621C48616B66
:10273000C8621C48616B08630020616B486302AE8D
:1027400032682368191D2B46606BFEF7F1F800BF55
:102750000020009020680068009020684068009089
:1027600000BF00BF00BF002084F8380000BF206811
:10277000C06840F480702168C8602068406940F0FB
:102780000100216848612068406940F040002168EC
:1027900048610020B2E70220B0E700000D370008D2
:1027A00053370008BD360008704770472DE9F843DD
:1027B00004460D4616461F464FF0000994F83900AE
:1027C00020285CD105B116B90120BDE8F88300BF0F
:1027D00094F83800012801D10220F6E7012084F89E
:1027E000380000BF0020E063212084F83900FEF7A4
:1027F0009FFA8146A684E6842BE0E08C401EE084AC
:10280000A068B0F5805F16D14B460022802120469B
:10281000009701F049F908B10320D6E7A846B8F8B7
:102820000000C0F3080021684860206908B9AD1CA9
:102830000FE06D1C0DE04B460022802120460097E2
:1028400001F032F908B10320BFE715F8010B216848
:102850004860E08C0028D0D14B4600224021204621
:10286000009701F021F908B10320AEE7202084F899
:10287000390000BF002084F8380000BFA5E702201F
:10288000A3E70000F7B50446154694F83900202860
:102890003DD1019800B10DB90120FEBD00BF94F8F3
:1028A0003800012801D10220F7E7012084F8380020
:1028B00000BF01982062A584E5840020E063212008
:1028C00084F839001348216B88621348216BC86271
:1028D0001248216B08630020216B486301AE236816
:1028E0001A1D31682B46206BFEF722F86FF040006E
:1028F0002168086000BF002084F8380000BF20680D
:10290000406940F08000216848610020C5E702204E
:10291000C3E700006137000897370008BD3600089C
:102920007047704700BFFEE730B50B46002100BF7F
:1029300016E00A24B4EB107F05D9302404EB1074A0
:1029400003F8114005E0412404EB10740A3C03F83D
:102950001140000100254C00641C1D554C1CE1B2C7
:102960009142E6DB30BD000008B500BF1648406963
:1029700040F00100144948610846406900F0010038
:10298000009000BF00BF002201210F20FEF756FA81
:102990000F20FEF743FA002201211020FEF74EFA25
:1029A0001020FEF73BFA002211460C20FEF746FAF3
:1029B0000C20FEF733FA002211460D20FEF73EFAF6
:1029C0000D20FEF72BFA08BD0010024000B585B0BF
:1029D0000020019002900390049000BF314880696C
:1029E00040F010002F4988610846806900F010000F
:1029F000009000BF00BF00BF0846806940F0200083
:102A000088610846806900F02000009000BF00BF88
:102A100000BF0846806940F0080088610846806968
:102A200000F00800009000BF00BF00BF08468069AA
:102A300040F0040088610846806900F004000090BE
:102A400000BF00BF002202211748FEF76BF90022E9
:102A500010211548FEF766F902200190012002902E
:102A6000002003900220049001A90F48FDF7C2FF47
:102A70001020019001200290002003900220049079
:102A800001A90948FDF7B6FF01200190002002903E
:102A900003900220049001A90348FDF7ABFF05B0A5
:102AA00000BD0000001002400008014000B589B0E0
:102AB0000020079008901C216846FDF74CFB1F483A
:102AC0001F4908600020486000211D48816041F2D4
:102AD000BF21C160002101618161FFF7AFF908B139
:102AE000FDF7E5FC1648FFF760FB08B1FDF7DFFCDA
:102AF00000200790089007A91148FFF775F908B161
:102B0000FDF7D5FC60200090002001900290049019
:102B1000002269460A48FFF7C4FA08B1FDF7C7FC6E
:102B2000042269460648FFF7BCFA08B1FDF7BFFC6E
:102B30000348FFF781FA09B000BD0000000800401B
:102B40002809002010B50B480B4908604FF4E1300C
:102B50004860002108488160C16001610C21416129
:102B600000218161C161FFF77DFC08B1FDF79FFC89
:102B700010BD0000003801402C07002010B50B48A4
:102B80000B4908604FF4E13048600021084881603B
:102B9000C16001610C21416100218161C161FFF7C8
:102BA00061FC08B1FDF783FC10BD0000004400404B
:102BB0006C07002010B51448144908604FF4E13048
:102BC0004860002111488160C16001610C214161B0
:102BD00000218161C161FFF745FC10B12720FEF79C
:102BE0001DF9032211462720FEF728F9074800683F
:102BF000C06840F0100005490968C8608022044997
:102C00000248FFF76FFD10BD00480040AC070020F0
:102C10006809002010B50446114820600C2161614C
:102C20000021A161E1612046FFF71CFC08B1FDF71E
:102C30003EFC2720FEF7F2F8032211462720FEF77C
:102C4000FDF808480068C06840F0100005490968B0
:102C5000C860802204490348FFF744FD10BD00000E
:102C600000480040AC0700206809002010B5002291
:102C70000D490E4801F019FC08B1FDF718FC0C498C
:102C80000A4801F0A7FE08B1FDF711FC0949074801
:102C900001F0A9F808B1FDF70AFC044801F064FF4F
:102CA00008B1FDF704FC10BD3C000020740E0020AC
:102CB000A80000202C00002000BFFEE700200249F1
:102CC000C860486008607047000000200348C06882
:102CD00040F2433190FBF1F070470000000000200B
:102CE0001FB5FEF725F812490968401A14281ED9A5
:102CF0001048C06840F2433190FBF1F00090012190
:102D00000D48FEF707F8019002210B48FEF702F884
:102D100002900A480068C06A401C0949B1FBF0F003
:102D20000390102269460120FDF756FB00BF1FBD2E
:102D300014000020000000200008014028090020A5
:102D4000006CDC0210B501210A48FDF7E3FF80B9F1
:102D50000948007C01280CD14FF47A70FDF79BFBE9
:102D600001210448FDF7D6FF18B900F08DF8FFF7F0
:102D7000A5FF10BD00080140000000200A48007CAB
:102D800048B90948806809490860074880684008D0
:102D9000091D086007E000200449086002488068B7
:102DA0004008091D086070470000002034080040FA
:102DB00070B504460D46E00F0549087440F24330F3
:102DC0006043486000200860284600F04DFC70BD5C
:102DD0000000002010B51848007CD0B91648C06823
:102DE0001649884205DC1448C068401C1249C86076
:102DF00002E000F049F810BD0F480068401C0E4981
:102E00000860084600684968884212DB00F03CF818
:102E10000FE00948C068401E0749C86008460068BE
:102E2000401E0860084600684968884201DC00F0DE
:102E30002BF800BFDFE7000000000020588C0200E4
:102E400010B50E48406800B910BD01210C48FDF7CF
:102E500061FF20B90948007C012800D1F4E7002077
:102E600008490968486200210648FFF7BBF90421B8
:102E70000448FFF7B7F900BFE6E7000000000020B4
:102E8000000801402809002010B500210348FFF781
:102E9000CFF904210148FFF7CBF910BD2809002024
:102EA00070472DE9F0470546BDE12868B0F8449029
:102EB00009F00F06002E7ED109F01000B0BB00BF54
:102EC0002968098848F60F7201EA020040F40041BF
:102ED0002A68118000BF05F128042868B0F8501056
:102EE000207801EBC000801C296801F5806131F871
:102EF0001000C0F30900E061E169606908446061A5
:102F000000212846FEF70BF895F824000028CBD0C6
:102F1000A0690028C8D195F8240040F080002968F5
:102F2000A1F84C00002085F824007CE1FFE705F5BE
:102F300094742868B0F8008008F4006030B3286802
:102F4000B0F85010207801EBC000801D296801F511
:102F5000806131F81000C0F30900E061A18B8BB2F1
:102F6000E28805F50C71286802F042FE00BF29686E
:102F7000098840F68F7201EA020040F080012A6859
:102F8000118000BF2846FEF7DAFA4CE108F4004051
:102F9000002889D000BF2968098840F68F7201EAAD
:102FA000020040F080012A68118000BF2868B0F854
:102FB0005010207800E069E001EBC000801D296816
:102FC00001F5806131F81000C0F30900E061E069AB
:102FD00090B1606980B1B4F81CC01FFA8CF3E2882C
:102FE0006169286802F004FEE16960690844606173
:102FF00000212846FDF7A1FF00BF2A682968B1F823
:1030000050100A4402F20C41084600BF236953B92C
:10301000038848F2FF3C03EA0C030380038843F46F
:10302000004303801EE023693E2B0DD800BF2369B7
:103030005908237C03F0010303B1491C4FF6FF73C9
:1030400003EA812303800DE000BF23695909237C33
:1030500003F01F0303B9491E4FF4004343EA8123E1
:10306000038000BF00BF00BF00BF296809884BF67E
:103070008F7201EA020080F4805080F4005040F426
:10308000004141F080012A681180CCE0710028687D
:1030900030F8118008F4004000287ED000BF720094
:1030A000296831F8121040F68F7201EA020040F0F0
:1030B000800173002A6822F8131000BF05F5947090
:1030C00000EB4614207BB0B92868B0F85010207887
:1030D00001EBC000801D296801F5806131F8100006
:1030E000C0F30907002F4FD0E28861693B4628688A
:1030F00002F07EFD48E021784900286830F8110090
:1031000000F48040A8B12868B0F85010207801EB96
:10311000C000801C296801F5806131F81000C0F3FF
:103120000907DFB1228961693B46286802F060FD2A
:1031300014E02868B0F85010207801EBC000801D22
:10314000296801F5806131F81000C0F309072FB13B
:10315000628961693B46286802F04AFD00BF00BFF2
:1031600022785200296831F8121048F68F7201EA6D
:10317000020040F4004141F0C00123785B002A685E
:1031800022F8131000BF00BFE0693844E0616069B5
:1031900038446061A06920B100E00DE02069B842C8
:1031A00004D921782846FDF7C8FE05E02178284695
:1031B000D4E90523FDF785FF08F0800060B305F131
:1031C000280000EB461400BF7200296831F8121085
:1031D00048F60F7201EA020040F4004173002A68C9
:1031E00022F8131000BF2868B0F85010207801EBC7
:1031F000C000801C296801F5806131F81000C0F31F
:103200000900E061E169606908446061A06920B972
:1032100021782846FDF783FE05E021782846D4E989
:103220000523FDF7B2FF2868B0F8440000F4004021
:1032300000287FF43AAEBDE8F0870FB4FCB500215A
:1032400000226C460023089818B10A9808B10B9820
:1032500018B90020FCBC5DF814FB10208DF80000AC
:103260009DF81C008DF80100BDF83000ADF802009B
:1032700009980190AA261046521C0A9F3E541046F7
:10328000521C0A9F3E54002116E0605CA52805D020
:10329000605CAA2802D0605C552804D1A52610469F
:1032A000521C0A9F3E54665C1046521C0A9F3E54B4
:1032B000605C1844C3B2491C0829E6D300211BE016
:1032C0000898405CA52807D00898405CAA2803D03D
:1032D0000898405C552804D1A5261046521C0A9F28
:1032E0003E540898405C1844C3B20898465C1046A7
:1032F000521C0A9F3E54491C09988842E0D8A52BCD
:1033000003D0AA2B01D0552B04D1A5261046521C60
:103310000A9F3E541046521C0A9E335455261046AE
:10332000521C0A9F3E541046521C0A9F3E540B9852
:10333000026001208EE7704708B508490968C9088E
:103340004FF47A72B1FBF2F14143009100BF00BF2C
:1033500000994A1E00920029F9D108BD980000206A
:10336000704710B5FDF7EAFC10BD00B593B02821F9
:1033700009A8FCF7F0FE142104A8FCF7ECFE0020DD
:1033800000900190029003900120099000040A909F
:1033900000200B9001200D9002201090C10311918C
:1033A000C104129109A8FEF7D1FA08B1FDF77FF820
:1033B0000F20049002200590002006904FF48060BA
:1033C000079000200890012104A8FEF789F908B1B0
:1033D000FDF76DF810200090800403906846FEF71A
:1033E000E7F808B1FDF763F813B000BD11480068B5
:1033F00040F001000F490860084640680E49084047
:103400000C494860084600680C49084009490860B2
:103410000846006820F4802008600846406820F4D0
:10342000FE0048604FF41F008860C803044908602C
:1034300070470000001002400000FFF8FFFFF6FE9A
:1034400008ED00E010B50348FEF72BFDFFF7C2FCC6
:1034500010BD00002809002010B50268184B9842E2
:1034600008D0B0F1804F05D0164B984202D0164BD1
:10347000984203D122F070024B681A43104B9842D5
:1034800008D0B0F1804F05D00E4B984202D00E4BC1
:10349000984203D122F44072CB681A4322F0800391
:1034A0004C6943EA040202608B68C3620B68836262
:1034B000034B984201D10B6903630123436110BDA3
:1034C000002C0140000400400008004030B501F02D
:1034D0001F05012404FA05F3046A9C430462046A8C
:1034E00001F01F0502FA05F52C43046230BD00000F
:1034F00030B5056A25F001050562026A43688469F2
:1035000024F0700424F003040D682C4322F002021E
:103510008D682A430D4DA84206D100BF22F0080253
:10352000CD682A4322F00402084DA84207D123F4B3
:10353000807323F400734D692B438D692B434360E3
:1035400084614D684563026230BD0000002C01407B
:1035500030B5056A25F010050562026A4368846982
:1035600024F4E04424F440740D6844EA052422F075
:1035700020028D6842EA05120E4DA84207D100BF15
:1035800022F08002CD6842EA051222F04002094D85
:10359000A84209D123F4806323F400634D6943EA10
:1035A00085038D6943EA8503436084614D688563C3
:1035B000026230BD002C014030B5056A25F48075EB
:1035C0000562026A4368C46924F0700424F00304AD
:1035D0000D682C4322F400728D6842EA05220F4DDB
:1035E000A84207D100BF22F40062CD6842EA05225A
:1035F00022F48062094DA84209D123F4805323F4B8
:1036000000534D6943EA05138D6943EA051343608E
:10361000C4614D68C563026230BD0000002C0140EA
:1036200030B5056A25F480550562036A4468C269AD
:1036300022F4E04222F440720D6842EA052223F4AB
:1036400000538D6843EA0533064DA84204D124F4A3
:1036500080444D6944EA85144460C2614D68056444
:10366000036230BD002C0140B0F57A7F15D349F6D6
:103670004041884211D80949B1FBF0F1084A9160F4
:1036800000BF11468968491E064A1268D162044982
:103690008968491E034AD16000BF7047006CDC0294
:1036A000000000202809002070B505466C6A002043
:1036B000E085E0842046FEF72EFE70BD70B506461C
:1036C0000025746A20684069C0F3C01594F8390079
:1036D000212805D125B10020E084204600F082F8A1
:1036E00020684069C0F3801594F83A00222805D17B
:1036F00025B10020E085204600F054F8E06B40F052
:103700001000E0632046FEF706FE70BD70B505466A
:103710006C6A2868006800F02000B0B90020E085DD
:103720002068C06820F480702168C8602068406903
:1037300020F00100216848612068406920F04000C5
:1037400021684861202084F83A002046FFF72CF8D1
:1037500070BD70B50446656A2846FFF726F870BD4F
:1037600070B505466C6A2868006800F0200070B9E2
:103770000020E0842068406920F0800021684861D2
:103780002068C06840F040002168C86002E0204620
:10379000FFF7C6F870BD70B50446656A2846FFF7A6
:1037A000C0F870BD0168C96821F490710268D160E9
:1037B0000168496921F0010102685161202180F806
:1037C0003A10704710B504462068C06820F04000E9
:1037D0002168C860202084F839002046FFF7A0F84F
:1037E000002010BD0168C96821F0C0010268D160E5
:1037F000202180F83910704770B5044694F83A00DB
:1038000022284AD1A068B0F5805F13D1A56A20694B
:1038100040B920684068C0F308002880A06A801C76
:10382000A06219E020684068C0B22880A06A401CED
:10383000A06211E0206938B920684068C1B2A26A6C
:10384000501CA062117007E02068406800F07F0102
:10385000A26A501CA0621170E08D401E80B2E0850B
:10386000C8B92068C06820F020002168C8602068BE
:10387000C06820F480702168C8602068406920F02A
:10388000010021684861202084F83A002046FEF7B4
:103890008BFF002070BD0020FCE70220FAE700004B
:1038A00070B504462168096921F44051E26811436A
:1038B000226811612269A1681143626941EA020527
:1038C0002168C96841F20C62914329432268D160A2
:1038D0002168496921F44071A2691143226851614C
:1038E000564A2168914254D1FDF7D6FF00EBC00142
:1038F00001EB001162689200B1FBF2F100EBC00233
:1039000002EB001263689B00B2FBF3F26423B2FB8C
:10391000F3F202EBC20303EB0212A1EB82013222AB
:1039200002EB01116422B1FBF2F101F0F00100EBB6
:10393000C00202EB001263689B00B2FBF3F2642347
:10394000B2FBF3F201EB021200EBC00101EB00113C
:1039500063689B00B1FBF3F100EBC00303EB0013C2
:103960006668B600B3FBF6F36426B3FBF6F303EB2D
:10397000C30606EB0313A1EB8301322303EB011112
:103980006423B1FBF3F101F00F011144226891604F
:1039900053E0FDF771FF00EBC00101EB001162681D
:1039A0009200B1FBF2F100EBC00202EB001263687F
:1039B0009B00B2FBF3F26423B2FBF3F202EBC2030F
:1039C00003EB0212A1EB8201322202EB011164220D
:1039D000B1FBF2F101F0F00100EBC00202EB0012CA
:1039E00063689B00B2FBF3F26423B2FBF3F201EBDA
:1039F000021200EBC00101EB001163689B00B1FBF8
:103A0000F3F100EBC00303EB00136668B600B3FBF1
:103A1000F6F36426B3FBF6F303EBC30606EB0313DE
:103A2000A1EB8301322303EB01116423B1FBF3F11A
:103A300001F00F0111442268916070BD003801400F
:103A4000014691F8390021282CD18868B0F5805FB3
:103A50000FD10A6A1088C0F308000B685860086923
:103A600018B9086A801C086209E0086A401C0862EC
:103A700005E00B6A581C086218780B685860C88CFF
:103A8000401E80B2C88458B90868C06820F0800021
:103A90000B68D8600868C06840F040000B68D860C8
:103AA000002070470220FCE72DE9F04104460D4656
:103AB00017469846069E21E0701CF8B12EB1FDF71E
:103AC00037F9A0EB0800B04218D92068C06820F48C
:103AD000D0702168C8602068406920F0010021682A
:103AE0004861202084F8390084F83A0000BF0020A3
:103AF00084F8380000BF0320BDE8F081206800682A
:103B00002840A84201D1012000E00020B842D3D0D3
:103B10000020F1E738B500241648FEF7FDFB1548F4
:103B200000680068C0F3001018B300BF00200090C8
:103B300010480068006800900E48006840680090D7
:103B400000BF00BF0B48FEF7B3FB0B48006840689E
:103B5000C0F1800084B23CB1224608490848FCF715
:103B600001FD012007490870802204490148FEF741
:103B7000B9FD38BDAC07002074080020680900209A
:103B8000680C0020290000202DE9F04104460D4674
:103B9000D4F8B862D4F8C072D4F8B80268B305EBB0
:103BA000850104F1140000EB81008068F8B105EB99
:103BB000850104F1140000EB8100816807F1280001
:103BC00000EB45100069B1FBF0F200FB121070B978
:103BD000002105EB850204F1140000EB82008160F6
:103BE00000231A462946204600F0C8FE02E00020C5
:103BF000C6F814020020BDE8F0810220FBE770B592
:103C000004460E46D4F8B8523146204600F05FFD17
:103C1000C5F80C02D4F8B80248B1D5F80402D4F8BB
:103C2000BC12CA6805F503719047002070BD0220E0
:103C3000FCE770B504460E4600258121204600F0C1
:103C400060FC0021E1620121204600F05AFC0021C5
:103C5000C4F86C118221204600F053FC002121643D
:103C6000D4F8B80250B1D4F8BC1248688047D4F8F0
:103C7000B80201F02CF90020C4F8B802284670BD43
:103C800070B50546D5F8B842D5F8BC0278B194F8BD
:103C90000002FF280BD094F8012294F80002D5F816
:103CA000BC128B6821469847FF2084F80002002050
:103CB00070BD000001460A200880014870470000DE
:103CC0009C00002001464320088001487047000006
:103CD000240100200146432008800148704700006D
:103CE000E0000020014643200880014870470000A2
:103CF000680100202DE9F04104460F460026207C93
:103D000088B94FF4007302228121204600F042FD61
:103D10000121E1624B020222204600F03BFD01211D
:103D2000C4F86C110FE0402302228121204600F0EC
:103D300031FD0121E16240230222204600F02AFDEC
:103D40000121C4F86C11082303228221204600F0CF
:103D500021FD012121644FF4077001F0B9F8C4F886
:103D6000B802D4F8B80208B901261CE0D4F8B85259
:103D7000D4F8BC12086880470020C5F81402C5F8C2
:103D80001802207C40B94FF4007301212046D5F879
:103D9000042200F017FD06E0402301212046D5F85B
:103DA000042200F00FFD3046BDE8F08170B50446F6
:103DB000D4F8B852D4F8B80298B1207C40B94FF486
:103DC000007301212046D5F8042200F0FBFC06E038
:103DD000402301212046D5F8042200F0F3FC002006
:103DE00070BD0220FCE70246022011B1C2F8BC12ED
:103DF000002070470246D2F8B832C3F804120020FF
:103E0000704710B50346D3F8B842C4F80812C4F896
:103E10001022002010BD2DE9FC4105460C46D5F8C6
:103E2000B8620020019000900027207800F0600028
:103E300040B320285FD1E088E0B1207800F0800016
:103E400060B1E2886078D5F8BC128B68314698473B
:103E5000E2883146284600F0E6F812E0607886F8FD
:103E60000002A07986F80102E2883146284600F077
:103E7000B9F806E06078D5F8BC1200228B682146BC
:103E800098473EE0607820B10A2812D00B282AD14A
:103E90001FE095F89C02032805D1022269462846B6
:103EA00000F0C1F804E02146284600F08FF8022710
:103EB0001FE095F89C02032805D1012201A928469C
:103EC00000F0B1F804E02146284600F07FF8022710
:103ED0000FE095F89C02032804D02146284600F004
:103EE00075F8022705E02146284600F06FF8022702
:103EF00000BF00BF05E02146284600F067F8022712
:103F000000BF00BF3846BDE8FC8170B50546D5F856
:103F1000B842D5F8B802A8B1D4F8140280B901208B
:103F2000C4F81402D4F810122963B4F8100283B252
:103F300081212846D4F8082200F020FD002070BD21
:103F40000120FCE70220FAE770B504460D46D4F8DC
:103F5000B4022946426820469047002070BD70B5E3
:103F600004460D4694F89C02012804D0022803D090
:103F700003280CD101E000BF00BF6888012805D1EB
:103F80000020C4F8A402204600F05EF804E02946B0
:103F9000204600F01BF800BF00BF70BD70B506469C
:103FA0000C4615462B4622460021304600F00AFCFE
:103FB000002070BD70B506460C4615462B462246BD
:103FC0000021304600F0DAFC002070BD70B50446D8
:103FD0000D468021204600F0A5FC0021204600F07F
:103FE000A1FC70BD70B504460E4615460320C4F80A
:103FF00094024FF4AE700551001D05512B46324618
:104000000021204600F0DEFB002070BD10B5044604
:104010000520C4F8940200231A461946204600F0F1
:10402000D1FB002010BD70B504460E461546022097
:10403000C4F89402E56125622B46324600212046F1
:1040400000F09CFC002070BD10B504460420C4F8AC
:10405000940200231A461946204600F08FFC0020E7
:1040600010BD000070B505460C462DB92246064924
:1040700006A000F0DBF904E02246034903A000F0AB
:10408000D5F9014870BD0000941D00204344432031
:10409000436F6E666967000002461220088001487F
:1040A000704700005800002070B505460C462DB939
:1040B0002246064906A000F0B9F904E02246034969
:1040C00003A000F0B3F9014870BD0000941D00206A
:1040D00043444320496E7465726661636500000065
:1040E0000246042008800148704700006C00002050
:1040F00070B505460C462246024903A000F096F929
:10410000004870BD941D002053544D6963726F6563
:104110006C656374726F6E696373000070B50546F9
:104120000C462DB92246064906A000F07FF904E0AE
:104130002246034903A000F079F9014870BD000050
:10414000941D002053544D333220566972747561AA
:104150006C20436F6D506F727400000070B505469F
:104160000C461A202080FCF743FA014870BD00007D
:104170007000002070B504460D46E888012804D080
:1041800029462046FFF722FF1EE094F89C020128F2
:1041900004D0022803D0032810D109E000BF00207A
:1041A000A060012204F108012046FFF73CFF0AE06D
:1041B0000122211D2046FFF736FF04E02946204654
:1041C000FFF704FF00BF00BF70BDF8B504460E4600
:1041D000002000900027002570880012082875D262
:1041E000DFE800F0C7040C20C7C7A5B5207CD4F8D1
:1041F000B0120A68694690470746C1E0207C40B982
:10420000D4F8B402816A684688470746022078706D
:1042100007E0D4F8B402C16A68468847074602201E
:104220007870ADE0B078062878D2DFE800F00316A9
:10423000293C5063D4F8B002406838B1207CD4F8EF
:10424000B0124A6869469047074605E03146204665
:10425000FFF7BCFE681CC5B267E0D4F8B002806806
:1042600038B1207CD4F8B0128A6869469047074676
:1042700005E031462046FFF7A9FE681CC5B254E0B0
:10428000D4F8B002C06838B1207CD4F8B012CA6843
:1042900069469047074605E031462046FFF796FEFF
:1042A000681CC5B241E0D4F8B002006938B1207C86
:1042B000D4F8B0120A6969469047074605E03146CE
:1042C0002046FFF783FE681CC5B22EE051E0D4F80B
:1042D000B002406938B1207CD4F8B0124A6969460E
:1042E0009047074605E031462046FFF76FFE681C01
:1042F000C5B21AE0D4F8B002806940B1207CD4F88D
:10430000B0128A6969469047074606E006E03146E2
:104310002046FFF75BFE681CC5B206E0314620462A
:10432000FFF754FE681CC5B200BF00BF28E0207C28
:1043300030B9D4F8B402416B68468847074605E0B7
:1043400031462046FFF742FE681CC5B218E0207CCB
:1043500040B9D4F8B402016B684688470746072085
:10436000787005E031462046FFF730FE681CC5B284
:1043700006E031462046FFF729FE681CC5B200BFA3
:1043800000BF05B1F8BDBDF8000088B1F08878B174
:10439000F088BDF80010884202DDBDF8000000E0A2
:1043A000F0880090BDF8002039462046FFF73BFE1C
:1043B000F08810B92046FFF747FE00BFE2E701464C
:1043C000002002E0421CD0B2491C0A78002AF9D130
:1043D000704770B504460D4694F89C02012804D03D
:1043E000022803D003281AD101E000BF00BFE888EB
:1043F000022804D029462046FFF7E8FD14E00120FA
:10440000E060D4F8A40218B1E06840F00200E06077
:10441000022204F10C012046FFF705FE04E02946C4
:104420002046FFF7D3FD00BF00BF70BD2DE9F0416E
:1044300004460D4617460026FCB12046FFF7BFFF95
:10444000022101EB400038803A783046711CCEB230
:104450002A5403223046711CCEB22A540AE014F8C2
:10446000012B3046711CCEB22A5400223046711CFA
:10447000CEB22A5420780028F1D1BDE8F08101465F
:10448000002031B1012906D0022906D0032908D124
:1044900005E0002007E0022005E0012003E0022003
:1044A00001E0022000BF00BF704770B504460D4612
:1044B00016460CB9022070BDD4F8B40210B1002029
:1044C000C4F8B4020DB1C4F8B052012084F89C02C3
:1044D0002670204600F004F90020ECE72DE9F041B9
:1044E00004460D46002600272946D4F8C002FCF7F2
:1044F00063FD06463046FFF7C2FF07463846BDE873
:10450000F0812DE9F04104460D460026002729469A
:10451000D4F8C002FCF71FFD06463046FFF7AFFF98
:1045200007463846BDE8F0812DE9F04104460E46C5
:104530001746002E64D104F11405D4F89402022821
:1045400048D1D5E90301884210D9D5E90301401AC1
:10455000E860A88982B239462046FFF72BFD002388
:104560001A461946204600F02DF93EE02969A86850
:10457000B0FBF1F201FB1200B8B92969A8688842C2
:1045800013D3A868D4F8981288420ED2002211469C
:104590002046FFF70FFD0020C4F8980200231A46BA
:1045A0001946204600F00EF91FE0D4F8B402C068A6
:1045B00040B194F89C02032804D1D4F8B402C16835
:1045C000204688478021204600F0ACF92046FFF7BE
:1045D0001DFD0AE0D4F89402042802D0D4F8940215
:1045E00018B98021204600F09DF994F8A002012816
:1045F00018D1204600F0F6F9002084F8A00211E05E
:10460000D4F8B402406950B194F89C02032806D152
:10461000D4F8B402314642692046904702E00220B5
:10462000BDE8F0810020FBE72DE9F04104460E468D
:104630001746BEBB04F5AA75D4F89402032825D109
:10464000D5E90301884210D9D5E90301401AE86091
:10465000D5E90301884201D2E86800E0286982B206
:1046600039462046FFF79AFC2FE0D4F8B4020069DF
:1046700040B194F89C02032804D1D4F8B402016933
:10468000204688472046FFF7DFFC1EE0D4F894025E
:1046900005281AD10020C4F894020021204600F019
:1046A00041F912E0FFE7D4F8B402806950B194F800
:1046B0009C02032806D1D4F8B40231468269204610
:1046C000904702E00220BDE8F0810020FBE770B5D2
:1046D00004460D462946D4F8C002FCF7A7FC70BD7D
:1046E00010B504461D48C0F86842C4F8C0021C4812
:1046F0001A4908600820486002211848816000219A
:104700008161C1610162FCF725FE08B1FBF7CFFEB4
:1047100004F530741823002211462068FCF7E0FBF2
:104720005823002280212068FCF7DAFBC0230022F6
:1047300081212068FCF7D4FB4FF48873002201210B
:104740002068FCF7CDFB2068A4F530744FF480732B
:1047500000228221FCF7C4FB002010BD08190020B4
:10476000005C004010B50246D2F8C03201F0800073
:10477000802807D101F07F0403F1280000EB4410EA
:10478000807810BD01F07F0403F5947000EB4410B5
:104790008078F6E72DE9F04704460F4615461E4699
:1047A0004FF00008C1462B4632463946D4F8C002C5
:1047B000FCF745FC80464046FFF761FE81464846CF
:1047C000BDE8F0872DE9F04704460D4616461F4622
:1047D0004FF00008C1463B4632462946D4F8C00295
:1047E000FCF76FFC80464046FFF749FE814648468D
:1047F000BDE8F08710B5044640230022114620464C
:10480000FFF7C8FF01214FF4AC70015140214FF474
:10481000B27001514023002280212046FFF7BAFFE9
:104820000121A16140216162012084F89C020020E5
:10483000C4F894026060C4F8A402D4F8B80228B1A5
:104840002179D4F8B402426820469047002010BD78
:10485000014691F89C02042803D191F89D0281F849
:104860009C020020704710B5044694F89C0203286F
:1048700008D1D4F8B402C06920B1D4F8B402C16937
:1048800020468847002010BD024611740020704762
:104890002DE9F04104460D46002600272946D4F8AC
:1048A000C002FCF731FE06463046FFF7E8FD07463A
:1048B0003846BDE8F08170B504460D46294604F53A
:1048C0002A7000F073F80120C4F8940240F2AE2080
:1048D000005BC4F8980294F8A80200F01F0020B111
:1048E000012808D0022812D10BE004F52A712046D5
:1048F00000F041F913E004F52A71204600F0A8FA0F
:104900000DE004F52A71204600F086F907E094F8DE
:10491000A80200F08001204600F004F800BF00BFAC
:10492000002070BD2DE9F04104460D460026002709
:104930002946D4F8C002FCF7E8FB06463046FFF7EC
:104940009EFD07463846BDE8F08170B50446002557
:104950000026D4F8C002FCF7FBFD05462846FFF709
:104960008EFD0646304670BD014691F89C0281F8E6
:104970009D02042081F89C02002070472DE9F04739
:1049800004460D4616461F464FF00008C1463B46FA
:1049900032462946D4F8C002FCF7F7FB8046404671
:1049A000FFF76DFD81464846BDE8F0870A78027042
:1049B0004A7842708B78CA7803EB022242800B79E6
:1049C0004A7903EB022282808B79CA7903EB0222B7
:1049D000C28070470246002011B1C2F8B41200E054
:1049E0000220704701460020704770B504460D460E
:1049F000A88810BBE88800BB688880281DD2A878EA
:104A000000F07F0694F89C02032804D12946204632
:104A1000FFF7DCFA15E084F89E6231462046FFF786
:104A200037FF2046FFF710FB1EB1022084F89C02DE
:104A300007E0012084F89C0203E029462046FFF7A6
:104A4000C5FA70BD70B504460D460226D4F8B4020E
:104A500038B1D4F8B402294602682046904700B91C
:104A60000026304670BD000070B504460D46A8789B
:104A70003649087008460078012804DD294620469A
:104A8000FFF7A4FA60E094F89C02022802D0032801
:104A90004FD11CE02D480078A8B12C480078606008
:104AA000032084F89C02294801782046FFF7CAFFBA
:104AB000022804D129462046FFF788FA70BD204617
:104AC000FFF7C2FA02E02046FFF7BEFA3BE01F48BC
:104AD000007870B9022084F89C021C48007860605D
:104AE0001A4801782046FFF72FFA2046FFF7ACFA64
:104AF0001EE0164909786068884216D02179204660
:104B0000FFF722FA114800786060104801782046CB
:104B1000FFF798FF022804D129462046FFF756FAEE
:104B2000CCE72046FFF790FA02E02046FFF78CFA28
:104B300009E029462046FFF749FA04480178204653
:104B4000FFF702FA00BF00BF00BFB7E7AB010020CC
:104B500070B505460C466088012804D1C5F8A4024A
:104B60002846FFF771FA70BD10B504462046FFF7DE
:104B7000ECFE002010BD70B505460C4600262078DE
:104B800000F0600060B1202802D040283CD100E055
:104B900000BFD5F8B402214682682846904738E025
:104BA00060780A2829D2DFE800F01923281E280A95
:104BB0000528140F21462846FFF707FB22E021466F
:104BC0002846FFF712FF1DE021462846FFF74CFF5D
:104BD00018E021462846FFF7CDFA13E02146284683
:104BE000FFF7F7FB0EE021462846FFF7B1FF09E08B
:104BF00021462846FFF7B3F904E021462846FFF78F
:104C0000E5F900BF00BF04E021462846FFF7DEF9C2
:104C100000BF00BF304670BD2DE9F04105460E468D
:104C20004FF000083479307800F0600060B120283F
:104C300002D0402871D100E000BFD5F8B40231465F
:104C400082682846904700E1307800F06000202814
:104C500009D1D5F8B402314682682846904780468B
:104C60004046BDE8F081707800285ED001282FD042
:104C7000032876D195F89C02022802D0032820D17F
:104C800010E054B1802C08D021462846FFF74AFE98
:104C900080212846FFF746FE03E031462846FFF70D
:104CA00095F913E0708840B93CB1802C05D0F088AC
:104CB00018B921462846FFF735FE2846FFF7C4F904
:104CC00004E031462846FFF781F900BF00BFB5E098
:104CD00095F89C02022802D003281FD110E054B19D
:104CE000802C08D021462846FFF71CFE802128464C
:104CF000FFF718FE03E031462846FFF767F912E098
:104D0000708848B904F07F0018B121462846FFF7A3
:104D1000E5FB2846FFF798F905E091E03146284683
:104D2000FFF754F900BF00BF88E095F89C02022805
:104D300002D0032876D126E034B1802C04D031464D
:104D40002846FFF743F972E004F08000802809D17B
:104D500004F07F0000EB800105F1140000EB8100FE
:104D600008E066E004F07F0000EB800105F5AA7022
:104D700000EB8100074600203860022239462846B1
:104D8000FFF751F953E004F0800080280ED104F0C1
:104D90000F0000EB800105F1140000EB810040687A
:104DA00098B931462846FFF711F940E004F00F00AA
:104DB00000EB800105F5AA7000EB8100406820B986
:104DC00031462846FFF702F931E004F080008028E0
:104DD00008D104F07F0000EB800105F1140000EB26
:104DE000810007E004F07F0000EB800105F5AA7068
:104DF00000EB810007460CB1802C02D10020386006
:104E000009E021462846FFF7ADFC10B101203860CB
:104E100001E000203860022239462846FFF703F9F6
:104E200005E0FFE731462846FFF7D0F800BF00BF96
:104E300004E031462846FFF7C9F800BF00BF04E090
:104E400031462846FFF7C2F800BF00BF404608E7DA
:104E500070B505460C460026207800F0600030B1A1
:104E6000202802D040282AD100E000BF00BF95F8DA
:104E70009C02012804D0022803D0032818D101E0A5
:104E800000BF00BF207901280DDCD5F8B40221460F
:104E90008268284690470646E08840B93EB92846D1
:104EA000FFF7D2F803E021462846FFF78FF804E029
:104EB00021462846FFF78AF800BF00BF04E02146DC
:104EC0002846FFF783F800BF00BF002070BD704781
:104ED0000146014870470000741B0020F0B50246EF
:104EE00000260878400032F8100048F68F1400EAD7
:104EF0000403C87830B101280CD0022805D003285B
:104F00000BD104E043F4007309E000BF07E043F471
:104F1000C06304E043F4806301E0012600BF00BFEA
:104F200043F4004040F080000C78640022F8140044
:104F300000BF0C78640032F8144048F68F752C409E
:104F40000D7844EA050040F4004444F080040D78F4
:104F50006D0022F8154000BF087B00287ED14878FC
:104F6000002852D000BF1046B2F8505028440D78A7
:104F700000F5806707EB0514CD886D106D00258066
:104F800000BF00BF0C78640032F8140000F0400449
:104F90008CB100BF0D786D0032F8155048F68F7750
:104FA00005EA070444F4004545F0C0050F787F008A
:104FB00022F8175000BF00BFC878012813D000BFE7
:104FC0000C78640032F8144048F6BF7504EA050016
:104FD00080F0200040F4004444F080040D786D001F
:104FE00022F81540C3E100BF0C78640032F8144089
:104FF00048F6BF7504EA050040F4004444F080041C
:105000000D786D0022F81540B1E100BF1046B2F8EE
:10501000505028440D78042707EBC50500F580673C
:1050200007EB4504CD886D106D00258000BF00BFE3
:105030001546B2F8504025440C78062707EBC40407
:1050400005F5806707EB4404204600BF0F6967B988
:10505000078848F2FF3C07EA0C0700E057E00780AA
:10506000078847F4004707801EE00F693E2F0DD8E0
:1050700000BF0F697C080F7C07F0010707B1641CB3
:105080004FF6FF7707EA842707800DE000BF0F691E
:105090007C090F7C07F01F0707B9641E4FF4004717
:1050A00047EA8427078000BF00BF00BF00BF0C781D
:1050B000640032F8140000F480448CB100BF0D7815
:1050C0006D0032F8155048F68F7705EA070444F46E
:1050D000004545F481450F787F0022F8175000BF46
:1050E00000BF00BF0C78640032F814404BF68F7597
:1050F00004EA050080F4805080F4005040F400443D
:1051000044F080040D786D0022F815402FE100BFB7
:105110000C78640032F8144048F68F7504EA0500F4
:1051200040F4004444F4C0740D786D0022F815403A
:1051300000BF00BF00BF00BF1046B2F85050284467
:105140000D7800F5806707EB05140D896D106D0073
:10515000258000BF00BF00BF00BF1046B2F850500E
:1051600028440D78042707EBC50500F5806707EB99
:1051700045044D896D106D00258000BF00BF00BF44
:105180004878002870D100BF0C78640032F8140011
:1051900000F480448CB100BF0D786D0032F81550DA
:1051A00048F68F7705EA070444F4004545F4814545
:1051B0000F787F0022F8175000BF00BF00BF0C78A7
:1051C000640032F8140000F040048CB100BF0D7888
:1051D0006D0032F8155048F68F7705EA070444F45D
:1051E000004545F0C0050F787F0022F8175000BF3A
:1051F00000BF00BF0C78640032F8144048F68F7589
:1052000004EA050040F4004444F0C0040D786D0049
:1052100022F8154000BF00BF0C78640032F814403B
:105220004BF68F7504EA050080F4805080F400503E
:1052300040F4004444F080040D786D0022F81540DD
:1052400000BF00BF0C78640032F8144048F6BF7508
:1052500004EA050040F4004444F080040D786D0039
:1052600022F8154083E0FFE700BF0C78640032F8B5
:10527000140000F480448CB100BF0D786D0032F84A
:10528000155048F68F7705EA070444F4004545F4C5
:1052900081450F787F0022F8175000BF00BF00BF84
:1052A0000C78640032F8140000F040048CB100BFA8
:1052B0000D786D0032F8155048F68F7705EA07042F
:1052C00044F4004545F0C0050F787F0022F81750E0
:1052D00000BF00BF00BF0C78640032F8144048F6ED
:1052E0008F7504EA050040F4004444F481440D78CD
:1052F0006D0022F8154000BFC878012813D000BF08
:105300000C78640032F8144048F6BF7504EA0500D2
:1053100080F0200040F4004444F080040D786D00DB
:1053200022F8154011E000BF0C78640032F81440F8
:1053300048F6BF7504EA050040F4004444F08004D8
:105340000D786D0022F8154000BF00BF0C78640096
:1053500032F814404BF68F7504EA050040F400441F
:1053600044F080040D786D0022F8154000BF3046EF
:10537000F0BD10B50446002010BD30B50246087BD4
:1053800000285BD1487860B300BF0B785B0032F82F
:10539000130000F040038BB100BF0C78640032F8BA
:1053A000144048F68F7504EA050343F4004444F0C2
:1053B000C0040D786D0022F8154000BF00BF00BF8B
:1053C0000B785B0032F8133048F6BF7403EA040030
:1053D00040F4004343F080030C78640022F814305A
:1053E00007E100BF0B785B0032F8130000F4804344
:1053F0008BB100BF0C78640032F8144048F68F750A
:1054000004EA050343F4004444F481440D786D003C
:1054100022F8154000BF00BF00BF0B785B0032F8D8
:1054200013304BF68F7403EA040040F4004343F05A
:1054300080030C78640022F81430DAE04878002801
:105440006BD100BF0B785B0032F8130000F480438F
:105450008BB100BF0C78640032F8144048F68F75A9
:1054600004EA050343F4004444F481440D786D00DC
:1054700022F8154000BF00BF00BF0B785B0032F878
:10548000130000F040038BB100BF0C78640032F8C9
:10549000144048F68F7504EA050343F4004444F0D1
:1054A000C0040D786D0022F8154000BF00BF00BF9A
:1054B0000B785B0032F8133048F68F7403EA04006F
:1054C00040F4004343F0C0030C78640022F8143029
:1054D00000BF00BF0B785B0032F813304BF68F74BF
:1054E00003EA040040F4004343F080030C786400B6
:1054F00022F8143000BF00BF0B785B0032F8133085
:1055000048F6BF7403EA040040F4004343F080030C
:105510000C78640022F814306BE000BF0B785B005D
:1055200032F8130000F480438BB100BF0C786400A4
:1055300032F8144048F68F7504EA050343F400443A
:1055400044F481440D786D0022F8154000BF00BF7F
:1055500000BF0B785B0032F8130000F040038BB102
:1055600000BF0C78640032F8144048F68F7504EAE6
:10557000050343F4004444F0C0040D786D0022F8A4
:10558000154000BF00BF00BF0B785B0032F813303E
:1055900048F68F7403EA040040F4004343F4814367
:1055A0000C78640022F8143000BF00BF0B785B0059
:1055B00032F8133048F6BF7403EA040040F40043A5
:1055C00043F080030C78640022F8143000BF00BF61
:1055D0000B785B0032F813304BF68F7403EA04004B
:1055E00040F4004343F080030C78640022F8143048
:1055F00000BF002030BD014600207047014600205A
:10560000704710B50446012024F8400F0020208088
:10561000A0802082403C204600F0D4FA002010BD3B
:1056200001464FF43F42B1F840009043A1F84000DA
:105630000020704702460020704730B50246087BC4
:10564000002865D1487888B300BF0B785B0032F83A
:10565000130000F040038BB100BF0C78640032F8F7
:10566000144048F68F7504EA050343F4004444F0FF
:10567000C0040D786D0022F8154000BF00BFC87847
:10568000012845D000BF0B785B0032F8133048F694
:10569000BF7403EA040080F0200040F4004343F0AC
:1056A00080030C78640022F8143031E0FFE700BF7B
:1056B0000B785B0032F8130000F480438BB100BF1D
:1056C0000C78640032F8144048F68F7504EA05033C
:1056D00043F4004444F481440D786D0022F81540F1
:1056E00000BF00BF00BF0B785B0032F813304BF6F1
:1056F0008F7403EA040080F4805080F4005040F47A
:10570000004343F080030C78640022F8143000BF9B
:10571000002030BD10B50246487898B100BF0B7824
:105720005B0032F8133048F6BF7403EA040080F0DF
:10573000100040F4004343F080030C78640022F82A
:10574000143013E000BF0B785B0032F813304BF6D7
:105750008F7403EA040080F4805040F4004343F067
:1057600080030C78640022F8143000BF002010BDC4
:105770002DE9F04306460C466078012871D1216975
:10578000A069884204D92569A069401BA06102E094
:10579000A5690020A061207BA0B9ABB2E2883046A9
:1057A000616900F054FA00BF3046B6F8502010444A
:1057B0002278022303EBC20200F5806303EB42016F
:1057C0000D80E2E02078400036F8100000F0400044
:1057D00000285AD000BF3346607880BB00BF3246F5
:1057E000B6F850100A4421784FF0060808EBC101C2
:1057F00002F5806808EB4101084600BF75B9B0F8B2
:10580000008048F2FF3908EA0908A0F80080B0F8E3
:10581000008048F40048A0F8008020E03E2D0FD81A
:1058200000BF690805F00108B8F1000F00D0491C5D
:105830004FF6FF7808EA8128A0F800800FE011E019
:1058400000BF690905F01F08B8F1000F00D1491E1B
:105850004FF4004848EA8128A0F8008000BF00BF4C
:1058600010E0A8E0607801280CD1B6F8500003449D
:105870002078062101EBC00003F5806101EB400CAC
:10588000ACF8005000BF67894EE000BF6078B0BB45
:1058900000BF3246B6F850100A442178022303EBC9
:1058A000C10102F5806303EB4101084600BF55B911
:1058B000038848F2FF3C03EA0C030380038843F4A7
:1058C0000043038019E03E2D0BD800BF690805F0A6
:1058D000010303B1491C4FF6FF7303EA81230380E0
:1058E0000BE000BF690905F01F0303B9491E4FF41F
:1058F000004343EA8123038000BF00BF12E0FFE7BB
:10590000607801280ED100BF3046B6F85020104410
:105910002278022303EBC20200F5806303EB42010D
:105920000D8000BF00BF2789ABB23A46304661699F
:1059300000F08DF900BF607888B900BF2178490078
:1059400036F8111048F68F7201EA020040F4004167
:1059500041F0C0012278520026F8121014E060785D
:10596000012811D100BF2178490036F8111048F6FE
:105970008F7201EA020040F4004141F48141227833
:10598000520026F8121000BF00BF00BF2178490066
:1059900036F8111048F6BF7201EA020080F01000DC
:1059A00080F0200040F4004141F080012278520054
:1059B00026F8121003E12169A069884204D92569FB
:1059C000A069401BA06102E0A5690020A061207BC6
:1059D000B0BB00BF3246B6F850100A442178062307
:1059E00003EBC10102F5806303EB4101084600BFF0
:1059F00055B9038848F2FF3C03EA0C03038003888F
:105A000043F40043038019E03E2D0BD800BF690822
:105A100005F0010303B1491C4FF6FF7303EA81232C
:105A200003800BE000BF690905F01F0303B9491E9D
:105A30004FF4004343EA8123038000BF00BFA8E086
:105A4000FFE700BF00BF6078B0BB00BF3246B6F8CA
:105A500050100A442178022303EBC10102F5806350
:105A600003EB4101084600BF55B9038848F2FF3CEB
:105A700003EA0C030380038843F40043038019E026
:105A80003E2D0BD800BF690805F0010303B1491C86
:105A90004FF6FF7303EA812303800BE000BF69091F
:105AA00005F01F0303B9491E4FF4004343EA812365
:105AB000038000BF00BF12E0FFE7607801280ED12D
:105AC00000BF3046B6F8502010442278022303EB82
:105AD000C20200F5806303EB42010D8000BF00BFEE
